{
  "_format": "hh-sol-artifact-1",
  "contractName": "TestnetVerifier",
  "sourceName": "contracts/TestnetVerifier.sol",
  "abi": [
    {
      "inputs": [
        {
          "internalType": "uint256",
          "name": "_max_txs",
          "type": "uint256"
        },
        {
          "internalType": "uint256",
          "name": "_max_calldata",
          "type": "uint256"
        }
      ],
      "stateMutability": "payable",
      "type": "constructor"
    },
    {
      "anonymous": false,
      "inputs": [
        {
          "indexed": false,
          "internalType": "uint64",
          "name": "block_num",
          "type": "uint64"
        },
        {
          "indexed": false,
          "internalType": "uint256",
          "name": "block_hash",
          "type": "uint256"
        }
      ],
      "name": "VerificationSuccess",
      "type": "event"
    },
    {
      "inputs": [],
      "name": "max_calldata",
      "outputs": [
        {
          "internalType": "uint256",
          "name": "",
          "type": "uint256"
        }
      ],
      "stateMutability": "view",
      "type": "function"
    },
    {
      "inputs": [],
      "name": "max_txs",
      "outputs": [
        {
          "internalType": "uint256",
          "name": "",
          "type": "uint256"
        }
      ],
      "stateMutability": "view",
      "type": "function"
    },
    {
      "inputs": [],
      "name": "owner",
      "outputs": [
        {
          "internalType": "address payable",
          "name": "",
          "type": "address"
        }
      ],
      "stateMutability": "view",
      "type": "function"
    },
    {
      "inputs": [
        {
          "internalType": "bytes",
          "name": "",
          "type": "bytes"
        }
      ],
      "name": "verifyTestNetData",
      "outputs": [
        {
          "internalType": "uint256",
          "name": "",
          "type": "uint256"
        }
      ],
      "stateMutability": "view",
      "type": "function"
    }
  ],
  "bytecode": "0x608060405260405162004fe538038062004fe5833981810160405281019062000029919062000114565b600e821480156200003b575061290481145b6200007d576040517f08c379a00000000000000000000000000000000000000000000000000000000081526004016200007490620001e2565b60405180910390fd5b816000819055508060018190555033600260006101000a81548173ffffffffffffffffffffffffffffffffffffffff021916908373ffffffffffffffffffffffffffffffffffffffff160217905550505062000204565b600080fd5b6000819050919050565b620000ee81620000d9565b8114620000fa57600080fd5b50565b6000815190506200010e81620000e3565b92915050565b600080604083850312156200012e576200012d620000d4565b5b60006200013e85828601620000fd565b92505060206200015185828601620000fd565b9150509250929050565b600082825260208201905092915050565b7f5f6d61785f747873203d3d20313420616e64205f6d61785f63616c6c6461746160008201527f203d3d2031303530300000000000000000000000000000000000000000000000602082015250565b6000620001ca6029836200015b565b9150620001d7826200016c565b604082019050919050565b60006020820190508181036000830152620001fd81620001bb565b9050919050565b614dd180620002146000396000f3fe608060405234801561001057600080fd5b506004361061004c5760003560e01c806371a39e5c146100515780638da5cb5b1461006f578063d60ec7451461008d578063fda05cbf146100ab575b600080fd5b6100596100db565b6040516100669190614c68565b60405180910390f35b6100776100e1565b6040516100849190614cc4565b60405180910390f35b610095610107565b6040516100a29190614c68565b60405180910390f35b6100c560048036038101906100c09190614d4e565b61010d565b6040516100d29190614c68565b60405180910390f35b60005481565b600260009054906101000a900473ffffffffffffffffffffffffffffffffffffffff1681565b60015481565b600060017f30644e72e131a029b85045b68181585d97816a916871ca8d3c208c16d87cfd477f30644e72e131a029b85045b68181585d2833e84879b9709143e1f593f000000161027d565b60007f30644e72e131a029b85045b68181585d97816a916871ca8d3c208c16d87cfd4782107f30644e72e131a029b85045b68181585d97816a916871ca8d3c208c16d87cfd47841080821692505050600082146000841480821780198481169450505050507f30644e72e131a029b85045b68181585d97816a916871ca8d3c208c16d87cfd478384097f30644e72e131a029b85045b68181585d97816a916871ca8d3c208c16d87cfd478384097f30644e72e131a029b85045b68181585d97816a916871ca8d3c208c16d87cfd478482097f30644e72e131a029b85045b68181585d97816a916871ca8d3c208c16d87cfd476003820883811485811695505050505050600081141561026957600080fd5b92915050565b600060448201359050919050565b80610288600061026f565b0660205280610297602061026f565b06604052806102a6604061026f565b06606052806102b5606061026f565b06608052806102c4608061026f565b0660a0527ed0f07853d7aeafc41a26b8e30f71860f81e86fbde461d634f445cad2fa977a6000526102f560a061026f565b8060c05261030360c061026f565b8060e052846103128284610158565b169450505061032160e061026f565b806101005261033161010061026f565b8061012052846103418284610158565b169450505061035161012061026f565b806101405261036161014061026f565b8061016052846103718284610158565b169450505061038161016061026f565b806101805261039161018061026f565b806101a052846103a18284610158565b16945050506103b16101a061026f565b806101c0526103c16101c061026f565b806101e052846103d18284610158565b16945050506103e16101e061026f565b80610200526103f161020061026f565b8061022052846104018284610158565b169450505061041161022061026f565b806102405261042161024061026f565b8061026052846104318284610158565b169450505061044161026061026f565b806102805261045161028061026f565b806102a052846104618284610158565b16945050506104716102a061026f565b806102c0526104816102c061026f565b806102e052846104918284610158565b16945050506104a16102e061026f565b80610300526104b161030061026f565b8061032052846104c18284610158565b16945050506104d161032061026f565b80610340526104e161034061026f565b8061036052846104f18284610158565b169450505061050161036061026f565b806103805261051161038061026f565b806103a052846105218284610158565b16945050506105316103a061026f565b806103c0526105416103c061026f565b806103e052846105518284610158565b1694505050610400600020610400526104005181810661042052806104405250600161046053602161044020610460526104605181810661048052806104a0525061059d6103e061026f565b806104c0526105ad61040061026f565b806104e052846105bd8284610158565b169450505060606104a0206105005261050051818106610520528061054052506105e861042061026f565b80610560526105f861044061026f565b8061058052846106088284610158565b169450505061061861046061026f565b806105a05261062861048061026f565b806105c052846106388284610158565b16945050506106486104a061026f565b806105e0526106586104c061026f565b8061060052846106688284610158565b16945050506106786104e061026f565b806106205261068861050061026f565b8061064052846106988284610158565b169450505061012061054020610660526106605181810661068052806106a0525060016106c05360216106a0206106c0526106c0518181066106e0528061070052506106e561052061026f565b80610720526106f561054061026f565b8061074052846107058284610158565b169450505061071561056061026f565b806107605261072561058061026f565b8061078052846107358284610158565b16945050506107456105a061026f565b806107a0526107556105c061026f565b806107c052846107658284610158565b16945050506107756105e061026f565b806107e05261078561060061026f565b8061080052846107958284610158565b1694505050610120610700206108205261082051818106610840528061086052506107c161062061026f565b80610880526107d161064061026f565b806108a052846107e18284610158565b16945050506107f161066061026f565b806108c05261080161068061026f565b806108e052846108118284610158565b16945050506108216106a061026f565b80610900526108316106c061026f565b8061092052846108418284610158565b16945050506108516106e061026f565b806109405261086161070061026f565b8061096052846108718284610158565b169450505061088161072061026f565b806109805261089161074061026f565b806109a052846108a18284610158565b16945050506108b161076061026f565b806109c0526108c161078061026f565b806109e052846108d18284610158565b16945050506108e16107a061026f565b80610a00526108f16107c061026f565b80610a2052846109018284610158565b16945050506109116107e061026f565b80610a405261092161080061026f565b80610a6052846109318284610158565b169450505061022061086020610a8052610a8051818106610aa05280610ac052508061095e61082061026f565b06610ae0528061096f61084061026f565b06610b00528061098061086061026f565b06610b20528061099161088061026f565b06610b4052806109a26108a061026f565b06610b6052806109b36108c061026f565b06610b8052806109c46108e061026f565b06610ba052806109d561090061026f565b06610bc052806109e661092061026f565b06610be052806109f761094061026f565b06610c005280610a0861096061026f565b06610c205280610a1961098061026f565b06610c405280610a2a6109a061026f565b06610c605280610a3b6109c061026f565b06610c805280610a4c6109e061026f565b06610ca05280610a5d610a0061026f565b06610cc05280610a6e610a2061026f565b06610ce05280610a7f610a4061026f565b06610d005280610a90610a6061026f565b06610d205280610aa1610a8061026f565b06610d405280610ab2610aa061026f565b06610d605280610ac3610ac061026f565b06610d805280610ad4610ae061026f565b06610da05280610ae5610b0061026f565b06610dc05280610af6610b2061026f565b06610de05280610b07610b4061026f565b06610e005280610b18610b6061026f565b06610e205280610b29610b8061026f565b06610e405280610b3a610ba061026f565b06610e605280610b4b610bc061026f565b06610e805280610b5c610be061026f565b06610ea05280610b6d610c0061026f565b06610ec05280610b7e610c2061026f565b06610ee05280610b8f610c4061026f565b06610f005280610ba0610c6061026f565b06610f205280610bb1610c8061026f565b06610f405280610bc2610ca061026f565b06610f605280610bd3610cc061026f565b06610f805280610be4610ce061026f565b06610fa05280610bf5610d0061026f565b06610fc05280610c06610d2061026f565b06610fe05280610c17610d4061026f565b066110005280610c28610d6061026f565b066110205280610c39610d8061026f565b066110405280610c4a610da061026f565b066110605280610c5b610dc061026f565b066110805280610c6c610de061026f565b066110a052610600610ac0206110c0526110c0518181066110e052806111005250610c98610e0061026f565b8061112052610ca8610e2061026f565b806111405284610cb88284610158565b1694505050610cc8610e4061026f565b8061116052610cd8610e6061026f565b806111805284610ce88284610158565b1694505050610cf8610e8061026f565b806111a052610d08610ea061026f565b806111c05284610d188284610158565b1694505050610d28610ec061026f565b806111e052610d38610ee061026f565b806112005284610d488284610158565b1694505050610d58610f0061026f565b8061122052610d68610f2061026f565b806112405284610d788284610158565b1694505050610d88610f4061026f565b8061126052610d98610f6061026f565b806112805284610da88284610158565b16945050506101a0611100206112a0526112a0518181066112c052806112e0525080610aa051610aa05109611300528061130051611300510961132052806113205161132051096113405280611340516113405109611360528061136051611360510961138052806113805161138051096113a052806113a0516113a051096113c052806113c0516113c051096113e052806113e0516113e05109611400528061140051611400510961142052806114205161142051096114405280611440516114405109611460528061146051611460510961148052806114805161148051096114a052806114a0516114a051096114c052806114c0516114c051096114e052806114e0516114e05109611500528061150051611500510961152052807f30644e72e131a029b85045b68181585d2833e84879b9709143e1f593f0000000611520510861154052807f30644259cd94e7dd5045d7a27013b7fcd21c9e3b7fa75222e7bda49b729b0401611540510961156052807f1029a54dc20da204e850e34d69cf46b9af93a3cfe723e91e5552fd9d9c5502a9611560510961158052807f203aa9251f23fe24cfff626917b211a378a0447892958772ee8ef7f653aafd58610aa051086115a052807f15a9c33a6d34b8fb8e5c3ff61814ca50c878ed14bc17d9442cd5c127bf33fd6d61156051096115c052807f1aba8b3873fce72e29f405c0696c8e0c5fbafb33bda1974d170c346c30cc0294610aa051086115e052807f2fbfcf413997f6813e57011159103617e24bbc842eeb18d99361c938fd6f14a4611560510961160052807ea47f31a799a9a879f944a52871224545e82bc44ace57b7b0802c5af290eb5d610aa0510861162052807f0cf312e84f2456134e812826473d3dfb577b2bfdba762aba88b47b740472c1f0611560510961164052807f23713b8a920d4a1669cf1d903a441a61d0b8bc4abf4345d6bb2d7a1feb8d3e11610aa0510861166052807f230385eb1034f58ed905d7dafbbf62da84661de658f682a719d8836889e04857611560510961168052807f0d60c887d0fcaa9adf4a6ddb85c1f582a3cdca6220c2edea2a09722b661fb7aa610aa051086116a052807f193586da872cdeff023d6ab2263a131b4780db8878be3c3b7f8f019c06fcb0fb61156051096116c052807f172ec7985a04c12ab612db045b474541e0b30cc000fb3455c452f3f7e9034f06610aa051086116e052807f0e1165d221ab96da2bb4efe1b8fbf541b58d00917384a41bc6ab624d6d3e2b76611560510961170052807f2252e8a0bf86094f8c9b55d4c885631b72a6e7b70634cc757d36934682c1d48b610aa0510861172052806001611560510961174052807f30644e72e131a029b85045b68181585d2833e84879b9709143e1f593f0000000610aa0510861176052807f0f60c8fe0414cb9379b2d39267945f6bd60d06a05216231b26a9fcf88ddbfebe611560510961178052807f21038574dd1cd4963e9d722419ecf8f15226e1a827a34d761d37f89b62240143610aa051086117a052807f304cd1e79cfa5b0f054e981a27ed7706e7ea6b06a7f266ef8db819c179c2c3ea61156051096117c052807e177c8b4437451ab301ad9c5993e15640497d41d1c709a1b629dbd2763d3c17610aa051086117e052807f1de7dfece81e7023de570970c8a0ba91b9d61231326d53a2b0b4a91230aed2b5611560510961180052807f127c6e85f9133005d9f93c45b8e09dcb6e5dd617474c1cee932d4c81bf512d4c610aa0510861182052807f09d2cc4b5782fbe923e49ace3f647643a5f5d8fb89091c3ababd582133584b29611560510961184052807f2691822789aea440946baae8421ce219823e0f4cf0b0545689249d72bca7b4d8610aa05108611860526115a05181816115e0510990508061188052818161162051099050806118a052818161166051099050806118c05281816116a051099050806118e05281816116e05109905080611900528181611720510990508061192052818161176051099050806119405281816117a051099050806119605281816117e0510990508061198052818161182051099050806119a052818161186051099050806119c052818161154051099050806119e052506020611a20526020611a40526020611a60526119e051611a80527f30644e72e131a029b85045b68181585d2833e84879b9709143e1f593efffffff611aa0527f30644e72e131a029b85045b68181585d2833e84879b9709143e1f593f0000001611ac0528260016020611a0060c0611a2060055afa14169250611a0051600061154051905082826119c051096115405282828209915061186051905082826119a051096118605282828209915061182051905082826119805109611820528282820991506117e0519050828261196051096117e0528282820991506117a0519050828261194051096117a052828282099150611760519050828261192051096117605282828209915061172051905082826119005109611720528282820991506116e051905082826118e051096116e0528282820991506116a051905082826118c051096116a05282828209915061166051905082826118a051096116605282828209915061162051905082826118805109611620528282820991506115e051905082826115a051096115e052828282099150816115a0525050806115a0516115805109611ae052806115e0516115c05109611b005280611620516116005109611b205280611660516116405109611b4052806116a0516116805109611b6052806116e0516116c05109611b805280611720516117005109611ba05280611760516117405109611bc052806117a0516117805109611be052806117e0516117c05109611c005280611820516118005109611c205280611860516118405109611c405280602051611bc05109818183604051611be05109089050818183606051611c005109089050818183608051611c20510908905081818360a051611c40510908905080611c60525080610b4051610b205109611c805280610ae051611c805108611ca05280610b00518203611ca05108611cc05280610e8051611cc05109611ce05280611ce0516108405109611d005280610e60518203600108611d205280610e6051611d205109611d405280610b00518203610ae05108611d605280611d4051611d605109611d805280611d8051611d005108611da05280611da0516108405109611dc05280610b60518203610b205108611de05280610e8051611de05109611e005280611e0051611dc05108611e205280611e20516108405109611e405280610e60518203600208611e605280610e6051611e605109611e805280610ae0518203610b805108611ea05280611e8051611ea05109611ec05280611ec051611e405108611ee05280611ee0516108405109611f005280610bc0518203610ba05108611f205280610e0051611f205109611f405280611f4051611f005108611f605280611f60516108405109611f805280610c00518203610be05108611fa05280610e0051611fa05109611fc05280611fc051611f805108611fe05280611fe05161084051096120005280610e005182036001086120205280600161202051096120405280610e20518203600108612060528061204051612060510961208052806120805182036001086120a05280610c40518203610c2051086120c052806120a0516120c051096120e052806120e051612000510861210052806121005161084051096121205280610e2051610ba051096121405280610ba051610c605109612160528061216051820360010861218052806121405161218051096121a052806121a05161212051086121c052806121c05161084051096121e052806120a051610c2051096122005280610c2051610c805109612220528061222051820360010861224052806122005161224051096122605280612260516121e0510861228052806122805161084051096122a05280610ba0518203610cc051086122c05280610e20516122c051096122e052806122c051610ca05109612300528061230051820360010861232052806122e05161232051096123405280612340516122a051086123605280612360516108405109612380528061218051610be051096123a05280610e20516123a051096123c052806123c05161238051086123e052806123e0516108405109612400528061218051610cc051096124205280610e2051612420510961244052806124405161240051086124605280612460516108405109612480528061218051610da051096124a05280610e20516124a051096124c052806124c05161248051086124e052806124e0516108405109612500528061218051610d6051096125205280610e205161252051096125405280612540516125005108612560528061256051610840510961258052806121805182036001086125a05280610e20516125a051096125c05280610be0518203610d0051086125e052807f30644e72e131a029b85045b68181585d2833e84879b9709143e1f593f00000006125e05108612600528061232051612600510961262052806125c05161262051096126405280612640516125805108612660528061266051610840510961268052806122c051610d0051096126a052806125c0516126a051096126c052806126c05161268051086126e052806126e05161084051096127005280610d60518203610d8051086127205280610d2051610d40510961274052806127405182036001086127605280600461276051096127805280601061274051096127a052806127a05161278051086127c052806127c051820361272051086127e05280612320516127e0510961280052806125c0516128005109612820528061282051612700510861284052806128405161084051096128605280610cc051610ce051096128805280612880516122c051096128a052806127c0518203610d8051086128c052806128a0516128c051096128e052806125c0516128e0510961290052806129005161286051086129205280612920516108405109612940528061232051610da0510961296052806125c051612960510961298052806129805161294051086129a052806129a05161084051096129c052807f30644e72e131a029b85045b68181585d2833e84879b9709143e1f593f0000000610da051086129e052806122c0516129e05109612a0052806125c051612a005109612a205280612a20516129c05108612a405280612a40516108405109612a605280610e40516125a05109612a8052807f30644e72e131a029b85045b68181585d2833e84879b9709143e1f593f0000001610be05108612aa05280612a8051612aa05109612ac05280612ac051612a605108612ae05280612ae0516108405109612b00528060046122405109612b205280612240518203600108612b4052806010612b405109612b605280612b6051612b205108612b805280612b80518203610d605108612ba05280612a8051612ba05109612bc05280612bc051612b005108612be05280612be0516108405109612c0052807f30644e72e131a029b85045b68181585d2833e84879b9709143e1f593effffff9610de05108612c205280610e0051612c205109612c405280612c2051610c605109612c605280612c60518203600108612c805280612c4051612c805109612ca05280612ca051612c005108612cc05280612cc0516108405109612ce05280610e0051612c805109612d005280612d00516122405109612d205280612d2051610d205109612d405280612d4051612ce05108612d605280612d60516108405109612d805280610f40518203600108612da05280611bc051612da05109612dc05280612dc051612d805108612de05280612de0516108405109612e005280610f4051610f405109612e205280610f40518203612e205108612e405280611ae051612e405109612e605280612e6051612e005108612e805280612e80516108405109612ea05280611ae0518203600108612ec05280611b2051611b005108612ee05280611b4051612ee05108612f005280611b6051612f005108612f205280611b8051612f205108612f405280611ba051612f405108612f605280612f60518203612ec05108612f80528061068051610ec05109612fa05280612fa051610ae05108612fc052806106e051612fc05108612fe0528061068051610ee05109613000528061300051610b00510861302052806106e05161302051086130405280612fe0516130405109613060528061068051610f005109613080528061308051610b2051086130a052806106e0516130a051086130c05280613060516130c051096130e0528061068051610f205109613100528061310051611c60510861312052806106e051613120510861314052806130e05161314051096131605280610f605161316051096131805280610680516001096131a052806131a051610aa051096131c052806131c051610ae051086131e052806106e0516131e051086132005280610680517f09226b6e22c6f0ca64ec26aad4c86e715b5f898e5e963f25870e56bbe533e9a209613220528061322051610aa05109613240528061324051610b00510861326052806106e051613260510861328052806132005161328051096132a05280610680517f13b360d4e82fe915fed16081038f98c211427b87a281bd733c277dbadf10372b096132c052806132c051610aa051096132e052806132e051610b20510861330052806106e051613300510861332052806132a05161332051096133405280610680517f18afdf23e9bd9302673fc1e076a492d4d65bd18ebc4d854ed189139bab313e5209613360528061336051610aa05109613380528061338051611c6051086133a052806106e0516133a051086133c05280613340516133c051096133e05280610f40516133e05109613400528061340051820361318051086134205280612f80516134205109613440528061344051612ea0510861346052806134605161084051096134805280610f805182036001086134a05280611bc0516134a051096134c052806134c05161348051086134e052806134e05161084051096135005280610f8051610f8051096135205280610f8051820361352051086135405280611ae0516135405109613560528061356051613500510861358052806135805161084051096135a0528061068051610fc051086135c05280610fa0516135c051096135e052806106e051611000510861360052806135e051613600510961362052807f30644e72e131a029b85045b68181585d2833e84879b9709143e1f593f00000006122c051086136405280613640516128805109613660528061366051612300510961368052806106805161368051086136a05280610f80516136a051096136c052806106e051610dc051086136e052806136c0516136e05109613700528061370051820361362051086137205280612f805161372051096137405280613740516135a0510861376052806137605161084051096137805280611000518203610fc051086137a05280611bc0516137a051096137c052806137c05161378051086137e052806137e05161084051096138005280612f80516137a051096138205280610fe0518203610fc051086138405280613820516138405109613860528061386051613800510861388052806138805161084051096138a052806110205182036001086138c05280611bc0516138c051096138e052806138e0516138a0510861390052806139005161084051096139205280611020516110205109613940528061102051820361394051086139605280611ae051613960510961398052806139805161392051086139a052806139a05161084051096139c052806106805161106051086139e05280611040516139e05109613a0052806106e0516110a05108613a205280613a0051613a205109613a405280610e0051612b405109613a605280613a6051612c805109613a805280613a8051610ba05109613aa05280613aa0516105205109613ac05280613a8051600109613ae05280613ae051613ac05108613b005280613b00516105205109613b205280613a8051610d205109613b405280613b4051613b205108613b60528061068051613b605108613b80528061102051613b805109613ba05280610ba0516105205109613bc05280610da051613bc05108613be05280613be0516105205109613c005280610d6051613c005108613c2052806106e051613c205108613c405280613ba051613c405109613c605280613c60518203613a405108613c805280612f8051613c805109613ca05280613ca0516139c05108613cc05280613cc0516108405109613ce052806110a05182036110605108613d005280611bc051613d005109613d205280613d2051613ce05108613d405280613d40516108405109613d605280612f8051613d005109613d8052806110805182036110605108613da05280613d8051613da05109613dc05280613dc051613d605108613de05280611520516115205109613e00528061152051613e005109613e20528061152051613e205109613e40528061152051613e405109613e60528061152051613e605109613e80528061152051613e805109613ea0528061152051613ea05109613ec0528061152051600109613ee05280613e0051600109613f005280613e2051600109613f205280613e4051600109613f405280613e6051600109613f605280613e8051600109613f805280613ea051600109613fa0528061154051613de05109613fc052806112c0516112c05109613fe052806112c051613fe0510961400052806112c051614000510961402052806112c051614020510961404052806112c051614040510961406052806110e0516110e0510961408052806110e05161408051096140a052806110e0516140a051096140c052806110e0516140c051096140e052806110e0516140e0510961410052806110e051614100510961412052806110e051614120510961414052806110e051614140510961416052806110e051614160510961418052806110e05161418051096141a052806110e0516141a051096141c052806110e0516141c051096141e052806110e0516141e0510961420052806110e051614200510961422052806110e051614220510961424052806110e051614240510961426052806110e051614260510961428052806110e05161428051096142a052806110e0516142a051096142c052806110e0516142c051096142e052806110e0516142e0510961430052806110e051614300510961432052806110e051614320510961434052806110e051614340510961436052806110e051614360510961438052806110e05161438051096143a052806110e0516143a051096143c052806110e0516143c051096143e052806110e0516143e0510961440052806110e051614400510961442052806110e051614420510961444052806001610ae05183030961446052806110e051610b005183030961448052806110e0516001096144a052806144805161446051086144c0528061408051610b20518303096144e052806140805160010961450052806144e0516144c0510861452052806140a051610b805183030961454052806140a051600109614560528061454051614520510861458052806140c051610ba0518303096145a052806140c0516001096145c052806145a05161458051086145e052806140e051610be05183030961460052806140e0516001096146205280614600516145e05108614640528061410051610c205183030961466052806141005160010961468052806146605161464051086146a0528061412051610c60518303096146c05280614120516001096146e052806146c0516146a05108614700528061414051610c80518303096147205280614140516001096147405280614720516147005108614760528061416051610ca0518303096147805280614160516001096147a052806147805161476051086147c0528061418051610d60518303096147e052806141805160010961480052806147e0516147c0510861482052806141a051610da05183030961484052806141a051600109614860528061484051614820510861488052806141c051610f40518303096148a052806141c0516001096148c052806148a05161488051086148e052806141e051610f805183030961490052806141e0516001096149205280614900516148e05108614940528061420051610fc05183030961496052806142005160010961498052806149605161494051086149a0528061422051611000518303096149c05280614220516001096149e052806149c0516149a05108614a0052806142405161102051830309614a20528061424051600109614a405280614a2051614a005108614a6052806142605161106051830309614a80528061426051600109614aa05280614a8051614a605108614ac05280614280516110a051830309614ae0528061428051600109614b005280614ae051614ac05108614b2052806142a051610dc051830309614b4052806142a051600109614b605280614b4051614b205108614b8052806142c051610de051830309614ba052806142c051600109614bc05280614ba051614b805108614be052806142e051610e0051830309614c0052806142e051600109614c205280614c0051614be05108614c40528061430051610e2051830309614c60528061430051600109614c805280614c6051614c405108614ca0528061432051610e4051830309614cc0528061432051600109614ce05280614cc051614ca05108614d00528061434051610e6051830309614d20528061434051600109614d405280614d2051614d005108614d60528061436051610e8051830309614d80528061436051600109614da05280614d8051614d605108614dc0528061438051610ec051830309614de0528061438051600109614e005280614de051614dc05108614e2052806143a051610ee051830309614e4052806143a051600109614e605280614e4051614e205108614e8052806143c051610f0051830309614ea052806143c051600109614ec05280614ea051614e805108614ee052806143e051610f2051830309614f0052806143e051600109614f205280614f0051614ee05108614f40528061440051613fc051830309614f60528061440051600109614f80528061440051613ee05109614fa0528061440051613f005109614fc0528061440051613f205109614fe0528061440051613f405109615000528061440051613f605109615020528061440051613f805109615040528061440051613fa051096150605280614f6051614f405108615080528061442051610ea0518303096150a05280614420516001096150c052806150a05161508051086150e0528060016150e05109615100528060016144a05109615120528060016145005109615140528060016145605109615160528060016145c051096151805280600161462051096151a05280600161468051096151c0528060016146e051096151e0528060016147405109615200528060016147a05109615220528060016148005109615240528060016148605109615260528060016148c051096152805280600161492051096152a05280600161498051096152c0528060016149e051096152e052806001614a40510961530052806001614aa0510961532052806001614b00510961534052806001614b60510961536052806001614bc0510961538052806001614c2051096153a052806001614c8051096153c052806001614ce051096153e052806001614d40510961540052806001614da0510961542052806001614e00510961544052806001614e60510961546052806001614ec0510961548052806001614f2051096154a052806001614f8051096154c052806001614fa051096154e052806001614fc0510961550052806001614fe051096155205280600161500051096155405280600161502051096155605280600161504051096155805280600161506051096155a0528060016150c051096155c052806001610b40518303096155e052806110e051610b60518303096156005280615600516155e05108615620528061408051610cc051830309615640528061564051615620510861566052806140a051610ce05183030961568052806156805161566051086156a052806140c051610d00518303096156c052806156c0516156a051086156e052806140e051610d20518303096157005280615700516156e05108615720528061410051610d40518303096157405280615740516157205108615760528061412051610d805183030961578052806157805161576051086157a0528061414051610f60518303096157c052806157c0516157a051086157e0528061416051610fa0518303096158005280615800516157e0510861582052806141805161104051830309615840528061584051615820510861586052806112c051615860510961588052806112c0516001096158a052806112c0516144a051096158c052806112c05161450051096158e052806112c051614560510961590052806112c0516145c0510961592052806112c051614620510961594052806112c051614680510961596052806112c0516146e0510961598052806112c05161474051096159a052806112c0516147a051096159c052806112c05161480051096159e05280615880516151005108615a0052806158a0516151205108615a2052806158c0516151405108615a4052806158e0516151805108615a605280615900516151e05108615a805280615920516151a05108615aa05280615940516151c05108615ac05280615960516152005108615ae05280615980516152405108615b0052806159a0516152805108615b2052806159c0516152a05108615b4052806159e0516153005108615b6052806001610bc051830309615b805280613fe051615b805109615ba05280613fe051600109615bc05280615ba051615a005108615be05280615bc051600108615c0052806001610c0051830309615c20528061400051615c205109615c40528061400051600109615c605280615c4051615be05108615c805280615c6051615c005108615ca052806001610c4051830309615cc0528061402051615cc05109615ce0528061402051600109615d005280615ce051615c805108615d205280615d0051615ca05108615d4052806001610fe051830309615d6052806110e05161108051830309615d805280615d8051615d605108615da0528061404051615da05109615dc0528061404051600109615de05280614040516144a05109615e005280615dc051615d205108615e205280615de0516152c05108615e405280615e00516153205108615e605280610aa051600109615e805280615e8051600109615ea05280610aa0517f0f60c8fe0414cb9379b2d39267945f6bd60d06a05216231b26a9fcf88ddbfebe09615ec05280615ec0516158a05109615ee05280610aa0517f1f9e2419f75d36bbe16e8621e98caae78e220b363951b47ffdd11d45e6e25fe809615f005280615f0051615bc05109615f205280610aa0517f2953b254b5687b1bb62adca5e035fa4f061949bb6de6fb13c44a40059d742bff09615f405280615f4051615c605109615f605280610aa0517f305a16bfb962275b60213c85e168b06357a60860ee48481def46ab7a068f4e8709615f805280615f8051615d005109615fa05280610aa0517f0e1165d221ab96da2bb4efe1b8fbf541b58d00917384a41bc6ab624d6d3e2b7609615fc05280615fc051615de05109615fe052600161600052600261602052615e2051616040528260016040616000606061600060075afa1416925061034051616060526103605161608052615d40516160a0528260016040616060606061606060075afa14169250616000516160c052616020516160e0526160605161610052616080516161205282600160406160c060806160c060065afa1416925061038051616140526103a05161616052615a2051616180528260016040616140606061614060075afa141692506160c0516161a0526160e0516161c052616140516161e052616160516162005282600160406161a060806161a060065afa141692506103c051616220526103e05161624052615a4051616260528260016040616220606061622060075afa141692506161a051616280526161c0516162a052616220516162c052616240516162e0528260016040616280608061628060065afa141692506101405161630052610160516163205261516051616340528260016040616300606061630060075afa1416925061628051616360526162a05161638052616300516163a052616320516163c0528260016040616360608061636060065afa14169250610180516163e0526101a05161640052615a60516164205282600160406163e060606163e060075afa14169250616360516164405261638051616460526163e05161648052616400516164a0528260016040616440608061644060065afa141692506101c0516164c0526101e0516164e052615aa0516165005282600160406164c060606164c060075afa14169250616440516165205261646051616540526164c051616560526164e051616580528260016040616520608061652060065afa141692506104c0516165a0526104e0516165c052615ac0516165e05282600160406165a060606165a060075afa14169250616520516166005261654051616620526165a051616640526165c051616660528260016040616600608061660060065afa141692506102005161668052610220516166a052615a80516166c0528260016040616680606061668060075afa14169250616600516166e052616620516167005261668051616720526166a0516167405282600160406166e060806166e060065afa1416925061024051616760526102605161678052615ae0516167a0528260016040616760606061676060075afa141692506166e0516167c052616700516167e0526167605161680052616780516168205282600160406167c060806167c060065afa1416925061028051616840526102a0516168605261522051616880528260016040616840606061684060075afa141692506167c0516168a0526167e0516168c052616840516168e052616860516169005282600160406168a060806168a060065afa141692506102c051616920526102e05161694052615b0051616960528260016040616920606061692060075afa141692506168a051616980526168c0516169a052616920516169c052616940516169e0528260016040616980608061698060065afa1416925061030051616a005261032051616a205261526051616a40528260016040616a006060616a0060075afa1416925061698051616a60526169a051616a8052616a0051616aa052616a2051616ac0528260016040616a606080616a6060065afa1416925061072051616ae05261074051616b0052615b2051616b20528260016040616ae06060616ae060075afa14169250616a6051616b4052616a8051616b6052616ae051616b8052616b0051616ba0528260016040616b406080616b4060065afa1416925061076051616bc05261078051616be052615b4051616c00528260016040616bc06060616bc060075afa14169250616b4051616c2052616b6051616c4052616bc051616c6052616be051616c80528260016040616c206080616c2060065afa1416925061056051616ca05261058051616cc052615e4051616ce0528260016040616ca06060616ca060075afa14169250616c2051616d0052616c4051616d2052616ca051616d4052616cc051616d60528260016040616d006080616d0060065afa141692506105a051616d80526105c051616da0526152e051616dc0528260016040616d806060616d8060075afa14169250616d0051616de052616d2051616e0052616d8051616e2052616da051616e40528260016040616de06080616de060065afa141692506107a051616e60526107c051616e8052615b6051616ea0528260016040616e606060616e6060075afa14169250616de051616ec052616e0051616ee052616e6051616f0052616e8051616f20528260016040616ec06080616ec060065afa141692506105e051616f405261060051616f6052615e6051616f80528260016040616f406060616f4060075afa14169250616ec051616fa052616ee051616fc052616f4051616fe052616f6051617000528260016040616fa06080616fa060065afa141692506106205161702052610640516170405261534051617060528260016040617020606061702060075afa14169250616fa05161708052616fc0516170a052617020516170c052617040516170e0528260016040617080608061708060065afa141692507f0c74c709cb96986f1d0cfbf8158c49d6527be29297e2a34160758d1eafd9998d617100527f0d046fcbebf5d9f93201454ce9080ab1e72e54a720571d790497c0938ec8deb46171205261536051617140528260016040617100606061710060075afa1416925061708051617160526170a05161718052617100516171a052617120516171c0528260016040617160608061716060065afa141692507f0798039723cfac91efb75ead960552b9a82e84be97ba9417f9a9de7d724ea3456171e0527e8dc098cedc0978ec271ba6809b71116220fa707c32e9765f192c6f8066be4661720052615380516172205282600160406171e060606171e060075afa14169250617160516172405261718051617260526171e05161728052617200516172a0528260016040617240608061724060065afa141692507f093744ca5f6d125b2d2263b6e0597a8307ce7f6b124b85f57f7c9e4b86320f456172c0527f1b488e0a871eb01eaed718ae986beb4fae7a3088f8323897be7a7cae8f8acc3e6172e0526153a0516173005282600160406172c060606172c060075afa14169250617240516173205261726051617340526172c051617360526172e051617380528260016040617320608061732060065afa141692507f1dff96f9cdc88e51a7910cff2dcf37760bc64be1ce6d16480b81740dd9e4300c6173a0527f1a0bc4421bcd43bc82559e4765e0c91c2dcfd9ec3b5a84199890e5b586b270426173c0526153c0516173e05282600160406173a060606173a060075afa14169250617320516174005261734051617420526173a051617440526173c051617460528260016040617400608061740060065afa141692507f2120e4c047a7ad4eef123cdc15c8a553ef8b2a5209e8a9309c59210d71780527617480527f1ead68ff0a6c0f635cf3df86cee57bea8375eed181e71d28c93f7b51e7d3ae966174a0526153e0516174c0528260016040617480606061748060075afa14169250617400516174e052617420516175005261748051617520526174a0516175405282600160406174e060806174e060065afa141692507f213b4fa47675a748ff528ca561032197bf5ca2952f61eaec8fd17925335af42f617560527f1c764ea60db1ba1bfce4eb1d66ec944950f5b4e1ed8008ff8a05209664c71c3261758052615400516175a0528260016040617560606061756060075afa141692506174e0516175c052617500516175e0526175605161760052617580516176205282600160406175c060806175c060065afa141692507f097f0cdd0a1df0d938d1454fd51a8561a24c8a02b714dfec0bd580a94f9af0c1617640527f16cf0447831d6aedfc20a4ba4e584788109f5f11d37e846534e8355050153a5c6176605261542051617680528260016040617640606061764060075afa141692506175c0516176a0526175e0516176c052617640516176e052617660516177005282600160406176a060806176a060065afa141692507f037ae876eae738f288ca7f3cee712358431a35fbe902756612c460d35bfd599f617720527f1965bb3aaeae9a0a585f446ed40058c5297a3a9faa2e0291dff79bb866deb92c6177405261544051617760528260016040617720606061772060075afa141692506176a051617780526176c0516177a052617720516177c052617740516177e0528260016040617780608061778060065afa141692507f21e7019892c06111e9eddc62ccd50c02a54720c44a6e3db2592c7a159bad2538617800527f20b66d6caae2a83c5af7a956befbcc69571a0fc3a92e9a7b4b8cd3e8e6de68f96178205261546051617840528260016040617800606061780060075afa1416925061778051617860526177a05161788052617800516178a052617820516178c0528260016040617860608061786060065afa141692507f239a054ddabeff049c0e0f09ea20613d2355c3b13520a8bf37f398de2e38c1986178e0527e4a4a99a361ddcf014b293719ce14bb768413c6a8ae3f9a532f0eea1c7ae3af61790052615480516179205282600160406178e060606178e060075afa14169250617860516179405261788051617960526178e05161798052617900516179a0528260016040617940608061794060065afa141692507f1c97997fcc8152d27ee10bc2ddfd3ea48927d46c7f1f98634e1e02f418b9d2e66179c0527f2b971aed58385052cc63ee5edb6c89317d45758967a777e2ffef9b09ae001bf96179e0526154a051617a005282600160406179c060606179c060075afa1416925061794051617a205261796051617a40526179c051617a60526179e051617a80528260016040617a206080617a2060065afa1416925061088051617aa0526108a051617ac0526154c051617ae0528260016040617aa06060617aa060075afa14169250617a2051617b0052617a4051617b2052617aa051617b4052617ac051617b60528260016040617b006080617b0060065afa141692506108c051617b80526108e051617ba0526154e051617bc0528260016040617b806060617b8060075afa14169250617b0051617be052617b2051617c0052617b8051617c2052617ba051617c40528260016040617be06080617be060065afa1416925061090051617c605261092051617c805261550051617ca0528260016040617c606060617c6060075afa14169250617be051617cc052617c0051617ce052617c6051617d0052617c8051617d20528260016040617cc06080617cc060065afa1416925061094051617d405261096051617d605261552051617d80528260016040617d406060617d4060075afa14169250617cc051617da052617ce051617dc052617d4051617de052617d6051617e00528260016040617da06080617da060065afa1416925061098051617e20526109a051617e405261554051617e60528260016040617e206060617e2060075afa14169250617da051617e8052617dc051617ea052617e2051617ec052617e4051617ee0528260016040617e806080617e8060065afa141692506109c051617f00526109e051617f205261556051617f40528260016040617f006060617f0060075afa14169250617e8051617f6052617ea051617f8052617f0051617fa052617f2051617fc0528260016040617f606080617f6060065afa14169250610a0051617fe052610a20516180005261558051618020528260016040617fe06060617fe060075afa14169250617f605161804052617f805161806052617fe05161808052618000516180a0528260016040618040608061804060065afa14169250610a40516180c052610a60516180e0526155a0516181005282600160406180c060606180c060075afa14169250618040516181205261806051618140526180c051618160526180e051618180528260016040618120608061812060065afa141692506107e0516181a052610800516181c0526155c0516181e05282600160406181a060606181a060075afa14169250618120516182005261814051618220526181a051618240526181c051618260528260016040618200608061820060065afa141692506111205161828052611140516182a052615ea0516182c0528260016040618280606061828060075afa14169250618200516182e052618220516183005261828051618320526182a0516183405282600160406182e060806182e060065afa1416925061116051618360526111805161838052615ee0516183a0528260016040618360606061836060075afa141692506182e0516183c052618300516183e0526183605161840052618380516184205282600160406183c060806183c060065afa141692506111a051618440526111c05161846052615f2051618480528260016040618440606061844060075afa141692506183c0516184a0526183e0516184c052618440516184e052618460516185005282600160406184a060806184a060065afa141692506111e051618520526112005161854052615f6051618560528260016040618520606061852060075afa141692506184a051618580526184c0516185a052618520516185c052618540516185e0528260016040618580608061858060065afa1416925061122051618600526112405161862052615fa051618640528260016040618600606061860060075afa1416925061858051618660526185a05161868052618600516186a052618620516186c0528260016040618660608061866060065afa14169250611260516186e0526112805161870052615fe0516187205282600160406186e060606186e060075afa14169250618660516187405261868051618760526186e05161878052618700516187a0528260016040618740608061874060065afa14169250611160516187c052611180516187e0526158a0516188005282600160406187c060606187c060075afa14169250611120516188205261114051618840526187c051618860526187e051618880528260016040618820608061882060065afa141692506111a0516188a0526111c0516188c052615bc0516188e05282600160406188a060606188a060075afa14169250618820516189005261884051618920526188a051618940526188c051618960528260016040618900608061890060065afa141692506111e05161898052611200516189a052615c60516189c0528260016040618980606061898060075afa14169250618900516189e05261892051618a005261898051618a20526189a051618a405282600160406189e060806189e060065afa1416925061122051618a605261124051618a8052615d0051618aa0528260016040618a606060618a6060075afa141692506189e051618ac052618a0051618ae052618a6051618b0052618a8051618b20528260016040618ac06080618ac060065afa1416925061126051618b405261128051618b6052615de051618b80528260016040618b406060618b4060075afa14169250618ac051618ba052618ae051618bc052618b4051618be052618b6051618c00528260016040618ba06080618ba060065afa1416925061874051618c205261876051618c40527f198e9393920d483a7260bfb731fb5d25f1aa493335a9e71297e485b7aef312c2618c60527f1800deef121f1e76426a00665e5c4479674322d4f75edadd46debd5cd992f6ed618c80527f090689d0585ff075ec9e99ad690c3395bc4b313370b38ef355acdadcd122975b618ca0527f12c85ea5db8c6deb4aab71808dcb408fe3d1e7690c43d37b4ce6cc0166fa7daa618cc052618ba051618ce052618bc051618d00527f2329005ea8a804a907581104aba98f99022a3bc306c630b8453458cc09b3bcd3618d20527f096352ecf99892ac71a8f3548ddb449a5e7d01fde61766f75fca6e2eb7dab56d618d40527f2d83b0fc82bb3289b1b9c71a58eb2f799efa0bea1e5fae8c8dd8cdcb636911ae618d60527f2b4dd57a49fc4f6150f9142a774fa3300d0e96c38a3fb58f5e0ab550107580a0618d80528260016020618c20610180618c2060085afa14169250826001618c2051141692506000831415614c4557600080fd5b8260005260206000f35b6000819050919050565b614c6281614c4f565b82525050565b6000602082019050614c7d6000830184614c59565b92915050565b600073ffffffffffffffffffffffffffffffffffffffff82169050919050565b6000614cae82614c83565b9050919050565b614cbe81614ca3565b82525050565b6000602082019050614cd96000830184614cb5565b92915050565b600080fd5b600080fd5b600080fd5b600080fd5b600080fd5b60008083601f840112614d0e57614d0d614ce9565b5b8235905067ffffffffffffffff811115614d2b57614d2a614cee565b5b602083019150836001820283011115614d4757614d46614cf3565b5b9250929050565b60008060208385031215614d6557614d64614cdf565b5b600083013567ffffffffffffffff811115614d8357614d82614ce4565b5b614d8f85828601614cf8565b9250925050925092905056fea2646970667358221220e948e5899f3751718af2651db1feca478faefcfc2faf3ab3798947d633fc1e0164736f6c63430008090033",
  "linkReferences": {},
  "deployedLinkReferences": {}
}