{"contracts/TestLibBlockHeader.sol":{"TestLibBlockHeader":{"abi":[{"inputs":[{"components":[{"internalType":"bytes32","name":"parentHash","type":"bytes32"},{"internalType":"bytes32","name":"ommersHash","type":"bytes32"},{"internalType":"address","name":"beneficiary","type":"address"},{"internalType":"bytes32","name":"stateRoot","type":"bytes32"},{"internalType":"bytes32","name":"transactionsRoot","type":"bytes32"},{"internalType":"bytes32","name":"receiptsRoot","type":"bytes32"},{"internalType":"bytes32[8]","name":"logsBloom","type":"bytes32[8]"},{"internalType":"uint256","name":"difficulty","type":"uint256"},{"internalType":"uint64","name":"height","type":"uint64"},{"internalType":"uint64","name":"gasLimit","type":"uint64"},{"internalType":"uint64","name":"gasUsed","type":"uint64"},{"internalType":"uint64","name":"timestamp","type":"uint64"},{"internalType":"bytes","name":"extraData","type":"bytes"},{"internalType":"bytes32","name":"mixHash","type":"bytes32"},{"internalType":"uint64","name":"nonce","type":"uint64"},{"internalType":"uint256","name":"baseFeePerGas","type":"uint256"}],"internalType":"struct BlockHeader","name":"header","type":"tuple"},{"internalType":"address","name":"prover","type":"address"},{"internalType":"bytes32","name":"txListHash","type":"bytes32"}],"name":"hashBlockHeader","outputs":[{"internalType":"bytes16","name":"","type":"bytes16"},{"internalType":"bytes16","name":"","type":"bytes16"}],"stateMutability":"pure","type":"function"},{"inputs":[{"components":[{"internalType":"bytes32","name":"parentHash","type":"bytes32"},{"internalType":"bytes32","name":"ommersHash","type":"bytes32"},{"internalType":"address","name":"beneficiary","type":"address"},{"internalType":"bytes32","name":"stateRoot","type":"bytes32"},{"internalType":"bytes32","name":"transactionsRoot","type":"bytes32"},{"internalType":"bytes32","name":"receiptsRoot","type":"bytes32"},{"internalType":"bytes32[8]","name":"logsBloom","type":"bytes32[8]"},{"internalType":"uint256","name":"difficulty","type":"uint256"},{"internalType":"uint64","name":"height","type":"uint64"},{"internalType":"uint64","name":"gasLimit","type":"uint64"},{"internalType":"uint64","name":"gasUsed","type":"uint64"},{"internalType":"uint64","name":"timestamp","type":"uint64"},{"internalType":"bytes","name":"extraData","type":"bytes"},{"internalType":"bytes32","name":"mixHash","type":"bytes32"},{"internalType":"uint64","name":"nonce","type":"uint64"},{"internalType":"uint256","name":"baseFeePerGas","type":"uint256"}],"internalType":"struct BlockHeader","name":"header","type":"tuple"}],"name":"rlpBlockHeader","outputs":[{"internalType":"bytes","name":"","type":"bytes"}],"stateMutability":"pure","type":"function"}],"evm":{"bytecode":{"linkReferences":{},"object":"608060405234801561001057600080fd5b50611f6d806100206000396000f3fe608060405234801561001057600080fd5b50600436106100365760003560e01c80633b2234291461003b578063562c57d51461006c575b600080fd5b6100556004803603810190610050919061125d565b61009c565b604051610063929190611307565b60405180910390f35b61008660048036038101906100819190611330565b6100bf565b6040516100939190611412565b60405180910390f35b6000806100b3856100ac90611836565b85856104b0565b91509150935093915050565b60606000600f67ffffffffffffffff8111156100de576100dd611439565b5b60405190808252806020026020018201604052801561011157816020015b60608152602001906001900390816100fc5790505b509050610121836000013561094f565b8160008151811061013557610134611849565b5b602002602001018190525061014d836020013561094f565b8160018151811061016157610160611849565b5b60200260200101819052506101878360400160208101906101829190611878565b61096c565b8160028151811061019b5761019a611849565b5b60200260200101819052506101b3836060013561094f565b816003815181106101c7576101c6611849565b5b60200260200101819052506101df836080013561094f565b816004815181106101f3576101f2611849565b5b602002602001018190525061020b8360a0013561094f565b8160058151811061021f5761021e611849565b5b60200260200101819052506102558360c00160405160200161024191906118b6565b60405160208183030381529060405261099d565b8160068151811061026957610268611849565b5b6020026020010181905250610282836101c00135610a1b565b8160078151811061029657610295611849565b5b60200260200101819052506102c7836101e00160208101906102b891906118d2565b67ffffffffffffffff16610a1b565b816008815181106102db576102da611849565b5b6020026020010181905250610302836102000160208101906102fd91906118d2565b610a35565b8160098151811061031657610315611849565b5b602002602001018190525061033d8361022001602081019061033891906118d2565b610a35565b81600a8151811061035157610350611849565b5b60200260200101819052506103788361024001602081019061037391906118d2565b610a35565b81600b8151811061038c5761038b611849565b5b60200260200101819052506103f3838061026001906103ab919061190e565b8080601f016020809104026020016040519081016040528093929190818152602001838380828437600081840152601f19601f8201169050808301925050505050505061099d565b81600c8151811061040757610406611849565b5b602002602001018190525061042083610280013561094f565b81600d8151811061043457610433611849565b5b602002602001018190525061047a836102a001602081019061045691906118d2565b60405160200161046691906119a7565b60405160208183030381529060405261099d565b81600e8151811061048e5761048d611849565b5b602002602001018190525060006104a482610a59565b90508092505050919050565b60008060606000866101e00151141561051957601167ffffffffffffffff8111156104de576104dd611439565b5b60405190808252806020026020018201604052801561051157816020015b60608152602001906001900390816104fc5790505b50905061056b565b601267ffffffffffffffff81111561053457610533611439565b5b60405190808252806020026020018201604052801561056757816020015b60608152602001906001900390816105525790505b5090505b610578866000015161094f565b8160008151811061058c5761058b611849565b5b60200260200101819052506105a4866020015161094f565b816001815181106105b8576105b7611849565b5b60200260200101819052506105d0866040015161096c565b816002815181106105e4576105e3611849565b5b60200260200101819052506105fc866060015161094f565b816003815181106106105761060f611849565b5b6020026020010181905250610628866080015161094f565b8160048151811061063c5761063b611849565b5b60200260200101819052506106548660a0015161094f565b8160058151811061066857610667611849565b5b602002602001018190525061069f8660c0015160405160200161068b9190611a6d565b60405160208183030381529060405261099d565b816006815181106106b3576106b2611849565b5b60200260200101819052506106cb8660e00151610a1b565b816007815181106106df576106de611849565b5b60200260200101819052506106f8866101000151610a35565b8160088151811061070c5761070b611849565b5b6020026020010181905250610725866101200151610a35565b8160098151811061073957610738611849565b5b6020026020010181905250610752866101400151610a35565b81600a8151811061076657610765611849565b5b602002602001018190525061077f866101600151610a35565b81600b8151811061079357610792611849565b5b60200260200101819052506107ac86610180015161099d565b81600c815181106107c0576107bf611849565b5b60200260200101819052506107d9866101a0015161094f565b81600d815181106107ed576107ec611849565b5b6020026020010181905250610825866101c0015160405160200161081191906119a7565b60405160208183030381529060405261099d565b81600e8151811061083957610838611849565b5b60200260200101819052506000866101e00151146108d35761085f866101e00151610a1b565b81600f8151811061087357610872611849565b5b60200260200101819052506108878561096c565b8160108151811061089b5761089a611849565b5b60200260200101819052506108af8461094f565b816011815181106108c3576108c2611849565b5b6020026020010181905250610924565b6108dc8561096c565b81600f815181106108f0576108ef611849565b5b60200260200101819052506109048461094f565b8160108151811061091857610917611849565b5b60200260200101819052505b600061092f82610a59565b90506109418180519060200120610a9d565b935093505050935093915050565b60606109656109608360001c610ab1565b61099d565b9050919050565b6060610996826040516020016109829190611ad1565b60405160208183030381529060405261099d565b9050919050565b606080600183511480156109d557506080836000815181106109c2576109c1611849565b5b602001015160f81c60f81b60f81c60ff16105b156109e257829050610a12565b6109ee83516080610bbf565b83604051602001610a00929190611b28565b60405160208183030381529060405290505b80915050919050565b6060610a2e610a2983610e07565b61099d565b9050919050565b6060610a52610a4d8367ffffffffffffffff16610e07565b61099d565b9050919050565b60606000610a6683610f8b565b9050610a74815160c0610bbf565b81604051602001610a86929190611b28565b604051602081830303815290604052915050919050565b6000808291508260001c60801b9050915091565b6060600082604051602001610ac69190611b6d565b6040516020818303038152906040529050600080602067ffffffffffffffff811115610af557610af4611439565b5b6040519080825280601f01601f191660200182016040528015610b275781602001600182028036833780820191505090505b50905060005b8151811015610bb357838380610b4290611bb7565b945081518110610b5557610b54611849565b5b602001015160f81c60f81b828281518110610b7357610b72611849565b5b60200101907effffffffffffffffffffffffffffffffffffffffffffffffffffffffffffff1916908160001a90535080610bac90611bb7565b9050610b2d565b50809350505050919050565b6060806038841015610c7257600167ffffffffffffffff811115610be657610be5611439565b5b6040519080825280601f01601f191660200182016040528015610c185781602001600182028036833780820191505090505b5090508284610c279190611c0d565b60f81b81600081518110610c3e57610c3d611849565b5b60200101907effffffffffffffffffffffffffffffffffffffffffffffffffffffffffffff1916908160001a905350610dfd565b600080600190505b60008187610c889190611c73565b14610cae5781610c9790611bb7565b915061010081610ca79190611ca4565b9050610c7a565b600182610cbb9190611cfe565b67ffffffffffffffff811115610cd457610cd3611439565b5b6040519080825280601f01601f191660200182016040528015610d065781602001600182028036833780820191505090505b50925060378583610d179190611c0d565b610d219190611c0d565b60f81b83600081518110610d3857610d37611849565b5b60200101907effffffffffffffffffffffffffffffffffffffffffffffffffffffffffffff1916908160001a905350600190505b818111610dfa576101008183610d829190611d54565b610100610d8f9190611ebb565b87610d9a9190611c73565b610da49190611f06565b60f81b838281518110610dba57610db9611849565b5b60200101907effffffffffffffffffffffffffffffffffffffffffffffffffffffffffffff1916908160001a90535080610df390611bb7565b9050610d6c565b50505b8091505092915050565b6060600082604051602001610e1c9190611b6d565b604051602081830303815290604052905060005b6020811015610e9957600060f81b828281518110610e5157610e50611849565b5b602001015160f81c60f81b7effffffffffffffffffffffffffffffffffffffffffffffffffffffffffffff191614610e8857610e99565b80610e9290611bb7565b9050610e30565b6000816020610ea89190611d54565b67ffffffffffffffff811115610ec157610ec0611439565b5b6040519080825280601f01601f191660200182016040528015610ef35781602001600182028036833780820191505090505b50905060005b8151811015610f7f57838380610f0e90611bb7565b945081518110610f2157610f20611849565b5b602001015160f81c60f81b828281518110610f3f57610f3e611849565b5b60200101907effffffffffffffffffffffffffffffffffffffffffffffffffffffffffffff1916908160001a90535080610f7890611bb7565b9050610ef9565b50809350505050919050565b6060600082511415610fec57600067ffffffffffffffff811115610fb257610fb1611439565b5b6040519080825280601f01601f191660200182016040528015610fe45781602001600182028036833780820191505090505b509050611115565b600080600090505b8351811015611037578381815181106110105761100f611849565b5b602002602001015151826110249190611cfe565b91508061103090611bb7565b9050610ff4565b60008267ffffffffffffffff81111561105357611052611439565b5b6040519080825280601f01601f1916602001820160405280156110855781602001600182028036833780820191505090505b5090506000602082019050600092505b855183101561110d5760008684815181106110b3576110b2611849565b5b6020026020010151905060006020820190506110d18382845161111a565b8785815181106110e4576110e3611849565b5b602002602001015151836110f89190611cfe565b925050508261110690611bb7565b9250611095565b819450505050505b919050565b6000839050600083905060008390505b6020811061116857815183526020836111439190611cfe565b92506020826111529190611cfe565b91506020816111619190611d54565b905061112a565b60006001826020036101000a0390508019835116818551168181178652505050505050505050565b6000604051905090565b600080fd5b600080fd5b600080fd5b60006102e082840312156111c0576111bf6111a4565b5b81905092915050565b600073ffffffffffffffffffffffffffffffffffffffff82169050919050565b60006111f4826111c9565b9050919050565b611204816111e9565b811461120f57600080fd5b50565b600081359050611221816111fb565b92915050565b6000819050919050565b61123a81611227565b811461124557600080fd5b50565b60008135905061125781611231565b92915050565b6000806000606084860312156112765761127561119a565b5b600084013567ffffffffffffffff8111156112945761129361119f565b5b6112a0868287016111a9565b93505060206112b186828701611212565b92505060406112c286828701611248565b9150509250925092565b60007fffffffffffffffffffffffffffffffff0000000000000000000000000000000082169050919050565b611301816112cc565b82525050565b600060408201905061131c60008301856112f8565b61132960208301846112f8565b9392505050565b6000602082840312156113465761134561119a565b5b600082013567ffffffffffffffff8111156113645761136361119f565b5b611370848285016111a9565b91505092915050565b600081519050919050565b600082825260208201905092915050565b60005b838110156113b3578082015181840152602081019050611398565b838111156113c2576000848401525b50505050565b6000601f19601f8301169050919050565b60006113e482611379565b6113ee8185611384565b93506113fe818560208601611395565b611407816113c8565b840191505092915050565b6000602082019050818103600083015261142c81846113d9565b905092915050565b600080fd5b7f4e487b7100000000000000000000000000000000000000000000000000000000600052604160045260246000fd5b611471826113c8565b810181811067ffffffffffffffff821117156114905761148f611439565b5b80604052505050565b60006114a3611190565b90506114af8282611468565b919050565b600080fd5b600080fd5b600067ffffffffffffffff8211156114d9576114d8611439565b5b602082029050919050565b600080fd5b60006114fc6114f7846114be565b611499565b90508060208402830185811115611516576115156114e4565b5b835b8181101561153f578061152b8882611248565b845260208401935050602081019050611518565b5050509392505050565b600082601f83011261155e5761155d6114b9565b5b600861156b8482856114e9565b91505092915050565b6000819050919050565b61158781611574565b811461159257600080fd5b50565b6000813590506115a48161157e565b92915050565b600067ffffffffffffffff82169050919050565b6115c7816115aa565b81146115d257600080fd5b50565b6000813590506115e4816115be565b92915050565b600080fd5b600067ffffffffffffffff82111561160a57611609611439565b5b611613826113c8565b9050602081019050919050565b82818337600083830152505050565b600061164261163d846115ef565b611499565b90508281526020810184848401111561165e5761165d6115ea565b5b611669848285611620565b509392505050565b600082601f830112611686576116856114b9565b5b813561169684826020860161162f565b91505092915050565b60006102e082840312156116b6576116b5611434565b5b6116c1610200611499565b905060006116d184828501611248565b60008301525060206116e584828501611248565b60208301525060406116f984828501611212565b604083015250606061170d84828501611248565b606083015250608061172184828501611248565b60808301525060a061173584828501611248565b60a08301525060c061174984828501611549565b60c0830152506101c061175e84828501611595565b60e0830152506101e0611773848285016115d5565b61010083015250610200611789848285016115d5565b6101208301525061022061179f848285016115d5565b610140830152506102406117b5848285016115d5565b6101608301525061026082013567ffffffffffffffff8111156117db576117da6114b4565b5b6117e784828501611671565b610180830152506102806117fd84828501611248565b6101a0830152506102a0611813848285016115d5565b6101c0830152506102c061182984828501611595565b6101e08301525092915050565b6000611842368361169f565b9050919050565b7f4e487b7100000000000000000000000000000000000000000000000000000000600052603260045260246000fd5b60006020828403121561188e5761188d61119a565b5b600061189c84828501611212565b91505092915050565b6118b26101008383611620565b5050565b60006118c282846118a5565b6101008201915081905092915050565b6000602082840312156118e8576118e761119a565b5b60006118f6848285016115d5565b91505092915050565b600080fd5b600080fd5b600080fd5b6000808335600160200384360303811261192b5761192a6118ff565b5b80840192508235915067ffffffffffffffff82111561194d5761194c611904565b5b60208301925060018202360383131561196957611968611909565b5b509250929050565b60008160c01b9050919050565b600061198982611971565b9050919050565b6119a161199c826115aa565b61197e565b82525050565b60006119b38284611990565b60088201915081905092915050565b600060089050919050565b600081905092915050565b6000819050919050565b6119eb81611227565b82525050565b60006119fd83836119e2565b60208301905092915050565b6000602082019050919050565b611a1f816119c2565b611a2981846119cd565b9250611a34826119d8565b8060005b83811015611a65578151611a4c87826119f1565b9650611a5783611a09565b925050600181019050611a38565b505050505050565b6000611a798284611a16565b6101008201915081905092915050565b60008160601b9050919050565b6000611aa182611a89565b9050919050565b6000611ab382611a96565b9050919050565b611acb611ac6826111e9565b611aa8565b82525050565b6000611add8284611aba565b60148201915081905092915050565b600081905092915050565b6000611b0282611379565b611b0c8185611aec565b9350611b1c818560208601611395565b80840191505092915050565b6000611b348285611af7565b9150611b408284611af7565b91508190509392505050565b6000819050919050565b611b67611b6282611574565b611b4c565b82525050565b6000611b798284611b56565b60208201915081905092915050565b7f4e487b7100000000000000000000000000000000000000000000000000000000600052601160045260246000fd5b6000611bc282611574565b91507fffffffffffffffffffffffffffffffffffffffffffffffffffffffffffffffff821415611bf557611bf4611b88565b5b600182019050919050565b600060ff82169050919050565b6000611c1882611c00565b9150611c2383611c00565b92508260ff03821115611c3957611c38611b88565b5b828201905092915050565b7f4e487b7100000000000000000000000000000000000000000000000000000000600052601260045260246000fd5b6000611c7e82611574565b9150611c8983611574565b925082611c9957611c98611c44565b5b828204905092915050565b6000611caf82611574565b9150611cba83611574565b9250817fffffffffffffffffffffffffffffffffffffffffffffffffffffffffffffffff0483118215151615611cf357611cf2611b88565b5b828202905092915050565b6000611d0982611574565b9150611d1483611574565b9250827fffffffffffffffffffffffffffffffffffffffffffffffffffffffffffffffff03821115611d4957611d48611b88565b5b828201905092915050565b6000611d5f82611574565b9150611d6a83611574565b925082821015611d7d57611d7c611b88565b5b828203905092915050565b60008160011c9050919050565b6000808291508390505b6001851115611ddf57808604811115611dbb57611dba611b88565b5b6001851615611dca5780820291505b8081029050611dd885611d88565b9450611d9f565b94509492505050565b600082611df85760019050611eb4565b81611e065760009050611eb4565b8160018114611e1c5760028114611e2657611e55565b6001915050611eb4565b60ff841115611e3857611e37611b88565b5b8360020a915084821115611e4f57611e4e611b88565b5b50611eb4565b5060208310610133831016604e8410600b8410161715611e8a5782820a905083811115611e8557611e84611b88565b5b611eb4565b611e978484846001611d95565b92509050818404811115611eae57611ead611b88565b5b81810290505b9392505050565b6000611ec682611574565b9150611ed183611574565b9250611efe7fffffffffffffffffffffffffffffffffffffffffffffffffffffffffffffffff8484611de8565b905092915050565b6000611f1182611574565b9150611f1c83611574565b925082611f2c57611f2b611c44565b5b82820690509291505056fea2646970667358221220b44b0c09ce1f2d391087528695822b073c03a298f141d1c7927c7e2ca045cb2d64736f6c63430008090033","opcodes":"PUSH1 0x80 PUSH1 0x40 MSTORE CALLVALUE DUP1 ISZERO PUSH2 0x10 JUMPI PUSH1 0x0 DUP1 REVERT JUMPDEST POP PUSH2 0x1F6D DUP1 PUSH2 0x20 PUSH1 0x0 CODECOPY PUSH1 0x0 RETURN INVALID PUSH1 0x80 PUSH1 0x40 MSTORE CALLVALUE DUP1 ISZERO PUSH2 0x10 JUMPI PUSH1 0x0 DUP1 REVERT JUMPDEST POP PUSH1 0x4 CALLDATASIZE LT PUSH2 0x36 JUMPI PUSH1 0x0 CALLDATALOAD PUSH1 0xE0 SHR DUP1 PUSH4 0x3B223429 EQ PUSH2 0x3B JUMPI DUP1 PUSH4 0x562C57D5 EQ PUSH2 0x6C JUMPI JUMPDEST PUSH1 0x0 DUP1 REVERT JUMPDEST PUSH2 0x55 PUSH1 0x4 DUP1 CALLDATASIZE SUB DUP2 ADD SWAP1 PUSH2 0x50 SWAP2 SWAP1 PUSH2 0x125D JUMP JUMPDEST PUSH2 0x9C JUMP JUMPDEST PUSH1 0x40 MLOAD PUSH2 0x63 SWAP3 SWAP2 SWAP1 PUSH2 0x1307 JUMP JUMPDEST PUSH1 0x40 MLOAD DUP1 SWAP2 SUB SWAP1 RETURN JUMPDEST PUSH2 0x86 PUSH1 0x4 DUP1 CALLDATASIZE SUB DUP2 ADD SWAP1 PUSH2 0x81 SWAP2 SWAP1 PUSH2 0x1330 JUMP JUMPDEST PUSH2 0xBF JUMP JUMPDEST PUSH1 0x40 MLOAD PUSH2 0x93 SWAP2 SWAP1 PUSH2 0x1412 JUMP JUMPDEST PUSH1 0x40 MLOAD DUP1 SWAP2 SUB SWAP1 RETURN JUMPDEST PUSH1 0x0 DUP1 PUSH2 0xB3 DUP6 PUSH2 0xAC SWAP1 PUSH2 0x1836 JUMP JUMPDEST DUP6 DUP6 PUSH2 0x4B0 JUMP JUMPDEST SWAP2 POP SWAP2 POP SWAP4 POP SWAP4 SWAP2 POP POP JUMP JUMPDEST PUSH1 0x60 PUSH1 0x0 PUSH1 0xF PUSH8 0xFFFFFFFFFFFFFFFF DUP2 GT ISZERO PUSH2 0xDE JUMPI PUSH2 0xDD PUSH2 0x1439 JUMP JUMPDEST JUMPDEST PUSH1 0x40 MLOAD SWAP1 DUP1 DUP3 MSTORE DUP1 PUSH1 0x20 MUL PUSH1 0x20 ADD DUP3 ADD PUSH1 0x40 MSTORE DUP1 ISZERO PUSH2 0x111 JUMPI DUP2 PUSH1 0x20 ADD JUMPDEST PUSH1 0x60 DUP2 MSTORE PUSH1 0x20 ADD SWAP1 PUSH1 0x1 SWAP1 SUB SWAP1 DUP2 PUSH2 0xFC JUMPI SWAP1 POP JUMPDEST POP SWAP1 POP PUSH2 0x121 DUP4 PUSH1 0x0 ADD CALLDATALOAD PUSH2 0x94F JUMP JUMPDEST DUP2 PUSH1 0x0 DUP2 MLOAD DUP2 LT PUSH2 0x135 JUMPI PUSH2 0x134 PUSH2 0x1849 JUMP JUMPDEST JUMPDEST PUSH1 0x20 MUL PUSH1 0x20 ADD ADD DUP2 SWAP1 MSTORE POP PUSH2 0x14D DUP4 PUSH1 0x20 ADD CALLDATALOAD PUSH2 0x94F JUMP JUMPDEST DUP2 PUSH1 0x1 DUP2 MLOAD DUP2 LT PUSH2 0x161 JUMPI PUSH2 0x160 PUSH2 0x1849 JUMP JUMPDEST JUMPDEST PUSH1 0x20 MUL PUSH1 0x20 ADD ADD DUP2 SWAP1 MSTORE POP PUSH2 0x187 DUP4 PUSH1 0x40 ADD PUSH1 0x20 DUP2 ADD SWAP1 PUSH2 0x182 SWAP2 SWAP1 PUSH2 0x1878 JUMP JUMPDEST PUSH2 0x96C JUMP JUMPDEST DUP2 PUSH1 0x2 DUP2 MLOAD DUP2 LT PUSH2 0x19B JUMPI PUSH2 0x19A PUSH2 0x1849 JUMP JUMPDEST JUMPDEST PUSH1 0x20 MUL PUSH1 0x20 ADD ADD DUP2 SWAP1 MSTORE POP PUSH2 0x1B3 DUP4 PUSH1 0x60 ADD CALLDATALOAD PUSH2 0x94F JUMP JUMPDEST DUP2 PUSH1 0x3 DUP2 MLOAD DUP2 LT PUSH2 0x1C7 JUMPI PUSH2 0x1C6 PUSH2 0x1849 JUMP JUMPDEST JUMPDEST PUSH1 0x20 MUL PUSH1 0x20 ADD ADD DUP2 SWAP1 MSTORE POP PUSH2 0x1DF DUP4 PUSH1 0x80 ADD CALLDATALOAD PUSH2 0x94F JUMP JUMPDEST DUP2 PUSH1 0x4 DUP2 MLOAD DUP2 LT PUSH2 0x1F3 JUMPI PUSH2 0x1F2 PUSH2 0x1849 JUMP JUMPDEST JUMPDEST PUSH1 0x20 MUL PUSH1 0x20 ADD ADD DUP2 SWAP1 MSTORE POP PUSH2 0x20B DUP4 PUSH1 0xA0 ADD CALLDATALOAD PUSH2 0x94F JUMP JUMPDEST DUP2 PUSH1 0x5 DUP2 MLOAD DUP2 LT PUSH2 0x21F JUMPI PUSH2 0x21E PUSH2 0x1849 JUMP JUMPDEST JUMPDEST PUSH1 0x20 MUL PUSH1 0x20 ADD ADD DUP2 SWAP1 MSTORE POP PUSH2 0x255 DUP4 PUSH1 0xC0 ADD PUSH1 0x40 MLOAD PUSH1 0x20 ADD PUSH2 0x241 SWAP2 SWAP1 PUSH2 0x18B6 JUMP JUMPDEST PUSH1 0x40 MLOAD PUSH1 0x20 DUP2 DUP4 SUB SUB DUP2 MSTORE SWAP1 PUSH1 0x40 MSTORE PUSH2 0x99D JUMP JUMPDEST DUP2 PUSH1 0x6 DUP2 MLOAD DUP2 LT PUSH2 0x269 JUMPI PUSH2 0x268 PUSH2 0x1849 JUMP JUMPDEST JUMPDEST PUSH1 0x20 MUL PUSH1 0x20 ADD ADD DUP2 SWAP1 MSTORE POP PUSH2 0x282 DUP4 PUSH2 0x1C0 ADD CALLDATALOAD PUSH2 0xA1B JUMP JUMPDEST DUP2 PUSH1 0x7 DUP2 MLOAD DUP2 LT PUSH2 0x296 JUMPI PUSH2 0x295 PUSH2 0x1849 JUMP JUMPDEST JUMPDEST PUSH1 0x20 MUL PUSH1 0x20 ADD ADD DUP2 SWAP1 MSTORE POP PUSH2 0x2C7 DUP4 PUSH2 0x1E0 ADD PUSH1 0x20 DUP2 ADD SWAP1 PUSH2 0x2B8 SWAP2 SWAP1 PUSH2 0x18D2 JUMP JUMPDEST PUSH8 0xFFFFFFFFFFFFFFFF AND PUSH2 0xA1B JUMP JUMPDEST DUP2 PUSH1 0x8 DUP2 MLOAD DUP2 LT PUSH2 0x2DB JUMPI PUSH2 0x2DA PUSH2 0x1849 JUMP JUMPDEST JUMPDEST PUSH1 0x20 MUL PUSH1 0x20 ADD ADD DUP2 SWAP1 MSTORE POP PUSH2 0x302 DUP4 PUSH2 0x200 ADD PUSH1 0x20 DUP2 ADD SWAP1 PUSH2 0x2FD SWAP2 SWAP1 PUSH2 0x18D2 JUMP JUMPDEST PUSH2 0xA35 JUMP JUMPDEST DUP2 PUSH1 0x9 DUP2 MLOAD DUP2 LT PUSH2 0x316 JUMPI PUSH2 0x315 PUSH2 0x1849 JUMP JUMPDEST JUMPDEST PUSH1 0x20 MUL PUSH1 0x20 ADD ADD DUP2 SWAP1 MSTORE POP PUSH2 0x33D DUP4 PUSH2 0x220 ADD PUSH1 0x20 DUP2 ADD SWAP1 PUSH2 0x338 SWAP2 SWAP1 PUSH2 0x18D2 JUMP JUMPDEST PUSH2 0xA35 JUMP JUMPDEST DUP2 PUSH1 0xA DUP2 MLOAD DUP2 LT PUSH2 0x351 JUMPI PUSH2 0x350 PUSH2 0x1849 JUMP JUMPDEST JUMPDEST PUSH1 0x20 MUL PUSH1 0x20 ADD ADD DUP2 SWAP1 MSTORE POP PUSH2 0x378 DUP4 PUSH2 0x240 ADD PUSH1 0x20 DUP2 ADD SWAP1 PUSH2 0x373 SWAP2 SWAP1 PUSH2 0x18D2 JUMP JUMPDEST PUSH2 0xA35 JUMP JUMPDEST DUP2 PUSH1 0xB DUP2 MLOAD DUP2 LT PUSH2 0x38C JUMPI PUSH2 0x38B PUSH2 0x1849 JUMP JUMPDEST JUMPDEST PUSH1 0x20 MUL PUSH1 0x20 ADD ADD DUP2 SWAP1 MSTORE POP PUSH2 0x3F3 DUP4 DUP1 PUSH2 0x260 ADD SWAP1 PUSH2 0x3AB SWAP2 SWAP1 PUSH2 0x190E JUMP JUMPDEST DUP1 DUP1 PUSH1 0x1F ADD PUSH1 0x20 DUP1 SWAP2 DIV MUL PUSH1 0x20 ADD PUSH1 0x40 MLOAD SWAP1 DUP2 ADD PUSH1 0x40 MSTORE DUP1 SWAP4 SWAP3 SWAP2 SWAP1 DUP2 DUP2 MSTORE PUSH1 0x20 ADD DUP4 DUP4 DUP1 DUP3 DUP5 CALLDATACOPY PUSH1 0x0 DUP2 DUP5 ADD MSTORE PUSH1 0x1F NOT PUSH1 0x1F DUP3 ADD AND SWAP1 POP DUP1 DUP4 ADD SWAP3 POP POP POP POP POP POP POP PUSH2 0x99D JUMP JUMPDEST DUP2 PUSH1 0xC DUP2 MLOAD DUP2 LT PUSH2 0x407 JUMPI PUSH2 0x406 PUSH2 0x1849 JUMP JUMPDEST JUMPDEST PUSH1 0x20 MUL PUSH1 0x20 ADD ADD DUP2 SWAP1 MSTORE POP PUSH2 0x420 DUP4 PUSH2 0x280 ADD CALLDATALOAD PUSH2 0x94F JUMP JUMPDEST DUP2 PUSH1 0xD DUP2 MLOAD DUP2 LT PUSH2 0x434 JUMPI PUSH2 0x433 PUSH2 0x1849 JUMP JUMPDEST JUMPDEST PUSH1 0x20 MUL PUSH1 0x20 ADD ADD DUP2 SWAP1 MSTORE POP PUSH2 0x47A DUP4 PUSH2 0x2A0 ADD PUSH1 0x20 DUP2 ADD SWAP1 PUSH2 0x456 SWAP2 SWAP1 PUSH2 0x18D2 JUMP JUMPDEST PUSH1 0x40 MLOAD PUSH1 0x20 ADD PUSH2 0x466 SWAP2 SWAP1 PUSH2 0x19A7 JUMP JUMPDEST PUSH1 0x40 MLOAD PUSH1 0x20 DUP2 DUP4 SUB SUB DUP2 MSTORE SWAP1 PUSH1 0x40 MSTORE PUSH2 0x99D JUMP JUMPDEST DUP2 PUSH1 0xE DUP2 MLOAD DUP2 LT PUSH2 0x48E JUMPI PUSH2 0x48D PUSH2 0x1849 JUMP JUMPDEST JUMPDEST PUSH1 0x20 MUL PUSH1 0x20 ADD ADD DUP2 SWAP1 MSTORE POP PUSH1 0x0 PUSH2 0x4A4 DUP3 PUSH2 0xA59 JUMP JUMPDEST SWAP1 POP DUP1 SWAP3 POP POP POP SWAP2 SWAP1 POP JUMP JUMPDEST PUSH1 0x0 DUP1 PUSH1 0x60 PUSH1 0x0 DUP7 PUSH2 0x1E0 ADD MLOAD EQ ISZERO PUSH2 0x519 JUMPI PUSH1 0x11 PUSH8 0xFFFFFFFFFFFFFFFF DUP2 GT ISZERO PUSH2 0x4DE JUMPI PUSH2 0x4DD PUSH2 0x1439 JUMP JUMPDEST JUMPDEST PUSH1 0x40 MLOAD SWAP1 DUP1 DUP3 MSTORE DUP1 PUSH1 0x20 MUL PUSH1 0x20 ADD DUP3 ADD PUSH1 0x40 MSTORE DUP1 ISZERO PUSH2 0x511 JUMPI DUP2 PUSH1 0x20 ADD JUMPDEST PUSH1 0x60 DUP2 MSTORE PUSH1 0x20 ADD SWAP1 PUSH1 0x1 SWAP1 SUB SWAP1 DUP2 PUSH2 0x4FC JUMPI SWAP1 POP JUMPDEST POP SWAP1 POP PUSH2 0x56B JUMP JUMPDEST PUSH1 0x12 PUSH8 0xFFFFFFFFFFFFFFFF DUP2 GT ISZERO PUSH2 0x534 JUMPI PUSH2 0x533 PUSH2 0x1439 JUMP JUMPDEST JUMPDEST PUSH1 0x40 MLOAD SWAP1 DUP1 DUP3 MSTORE DUP1 PUSH1 0x20 MUL PUSH1 0x20 ADD DUP3 ADD PUSH1 0x40 MSTORE DUP1 ISZERO PUSH2 0x567 JUMPI DUP2 PUSH1 0x20 ADD JUMPDEST PUSH1 0x60 DUP2 MSTORE PUSH1 0x20 ADD SWAP1 PUSH1 0x1 SWAP1 SUB SWAP1 DUP2 PUSH2 0x552 JUMPI SWAP1 POP JUMPDEST POP SWAP1 POP JUMPDEST PUSH2 0x578 DUP7 PUSH1 0x0 ADD MLOAD PUSH2 0x94F JUMP JUMPDEST DUP2 PUSH1 0x0 DUP2 MLOAD DUP2 LT PUSH2 0x58C JUMPI PUSH2 0x58B PUSH2 0x1849 JUMP JUMPDEST JUMPDEST PUSH1 0x20 MUL PUSH1 0x20 ADD ADD DUP2 SWAP1 MSTORE POP PUSH2 0x5A4 DUP7 PUSH1 0x20 ADD MLOAD PUSH2 0x94F JUMP JUMPDEST DUP2 PUSH1 0x1 DUP2 MLOAD DUP2 LT PUSH2 0x5B8 JUMPI PUSH2 0x5B7 PUSH2 0x1849 JUMP JUMPDEST JUMPDEST PUSH1 0x20 MUL PUSH1 0x20 ADD ADD DUP2 SWAP1 MSTORE POP PUSH2 0x5D0 DUP7 PUSH1 0x40 ADD MLOAD PUSH2 0x96C JUMP JUMPDEST DUP2 PUSH1 0x2 DUP2 MLOAD DUP2 LT PUSH2 0x5E4 JUMPI PUSH2 0x5E3 PUSH2 0x1849 JUMP JUMPDEST JUMPDEST PUSH1 0x20 MUL PUSH1 0x20 ADD ADD DUP2 SWAP1 MSTORE POP PUSH2 0x5FC DUP7 PUSH1 0x60 ADD MLOAD PUSH2 0x94F JUMP JUMPDEST DUP2 PUSH1 0x3 DUP2 MLOAD DUP2 LT PUSH2 0x610 JUMPI PUSH2 0x60F PUSH2 0x1849 JUMP JUMPDEST JUMPDEST PUSH1 0x20 MUL PUSH1 0x20 ADD ADD DUP2 SWAP1 MSTORE POP PUSH2 0x628 DUP7 PUSH1 0x80 ADD MLOAD PUSH2 0x94F JUMP JUMPDEST DUP2 PUSH1 0x4 DUP2 MLOAD DUP2 LT PUSH2 0x63C JUMPI PUSH2 0x63B PUSH2 0x1849 JUMP JUMPDEST JUMPDEST PUSH1 0x20 MUL PUSH1 0x20 ADD ADD DUP2 SWAP1 MSTORE POP PUSH2 0x654 DUP7 PUSH1 0xA0 ADD MLOAD PUSH2 0x94F JUMP JUMPDEST DUP2 PUSH1 0x5 DUP2 MLOAD DUP2 LT PUSH2 0x668 JUMPI PUSH2 0x667 PUSH2 0x1849 JUMP JUMPDEST JUMPDEST PUSH1 0x20 MUL PUSH1 0x20 ADD ADD DUP2 SWAP1 MSTORE POP PUSH2 0x69F DUP7 PUSH1 0xC0 ADD MLOAD PUSH1 0x40 MLOAD PUSH1 0x20 ADD PUSH2 0x68B SWAP2 SWAP1 PUSH2 0x1A6D JUMP JUMPDEST PUSH1 0x40 MLOAD PUSH1 0x20 DUP2 DUP4 SUB SUB DUP2 MSTORE SWAP1 PUSH1 0x40 MSTORE PUSH2 0x99D JUMP JUMPDEST DUP2 PUSH1 0x6 DUP2 MLOAD DUP2 LT PUSH2 0x6B3 JUMPI PUSH2 0x6B2 PUSH2 0x1849 JUMP JUMPDEST JUMPDEST PUSH1 0x20 MUL PUSH1 0x20 ADD ADD DUP2 SWAP1 MSTORE POP PUSH2 0x6CB DUP7 PUSH1 0xE0 ADD MLOAD PUSH2 0xA1B JUMP JUMPDEST DUP2 PUSH1 0x7 DUP2 MLOAD DUP2 LT PUSH2 0x6DF JUMPI PUSH2 0x6DE PUSH2 0x1849 JUMP JUMPDEST JUMPDEST PUSH1 0x20 MUL PUSH1 0x20 ADD ADD DUP2 SWAP1 MSTORE POP PUSH2 0x6F8 DUP7 PUSH2 0x100 ADD MLOAD PUSH2 0xA35 JUMP JUMPDEST DUP2 PUSH1 0x8 DUP2 MLOAD DUP2 LT PUSH2 0x70C JUMPI PUSH2 0x70B PUSH2 0x1849 JUMP JUMPDEST JUMPDEST PUSH1 0x20 MUL PUSH1 0x20 ADD ADD DUP2 SWAP1 MSTORE POP PUSH2 0x725 DUP7 PUSH2 0x120 ADD MLOAD PUSH2 0xA35 JUMP JUMPDEST DUP2 PUSH1 0x9 DUP2 MLOAD DUP2 LT PUSH2 0x739 JUMPI PUSH2 0x738 PUSH2 0x1849 JUMP JUMPDEST JUMPDEST PUSH1 0x20 MUL PUSH1 0x20 ADD ADD DUP2 SWAP1 MSTORE POP PUSH2 0x752 DUP7 PUSH2 0x140 ADD MLOAD PUSH2 0xA35 JUMP JUMPDEST DUP2 PUSH1 0xA DUP2 MLOAD DUP2 LT PUSH2 0x766 JUMPI PUSH2 0x765 PUSH2 0x1849 JUMP JUMPDEST JUMPDEST PUSH1 0x20 MUL PUSH1 0x20 ADD ADD DUP2 SWAP1 MSTORE POP PUSH2 0x77F DUP7 PUSH2 0x160 ADD MLOAD PUSH2 0xA35 JUMP JUMPDEST DUP2 PUSH1 0xB DUP2 MLOAD DUP2 LT PUSH2 0x793 JUMPI PUSH2 0x792 PUSH2 0x1849 JUMP JUMPDEST JUMPDEST PUSH1 0x20 MUL PUSH1 0x20 ADD ADD DUP2 SWAP1 MSTORE POP PUSH2 0x7AC DUP7 PUSH2 0x180 ADD MLOAD PUSH2 0x99D JUMP JUMPDEST DUP2 PUSH1 0xC DUP2 MLOAD DUP2 LT PUSH2 0x7C0 JUMPI PUSH2 0x7BF PUSH2 0x1849 JUMP JUMPDEST JUMPDEST PUSH1 0x20 MUL PUSH1 0x20 ADD ADD DUP2 SWAP1 MSTORE POP PUSH2 0x7D9 DUP7 PUSH2 0x1A0 ADD MLOAD PUSH2 0x94F JUMP JUMPDEST DUP2 PUSH1 0xD DUP2 MLOAD DUP2 LT PUSH2 0x7ED JUMPI PUSH2 0x7EC PUSH2 0x1849 JUMP JUMPDEST JUMPDEST PUSH1 0x20 MUL PUSH1 0x20 ADD ADD DUP2 SWAP1 MSTORE POP PUSH2 0x825 DUP7 PUSH2 0x1C0 ADD MLOAD PUSH1 0x40 MLOAD PUSH1 0x20 ADD PUSH2 0x811 SWAP2 SWAP1 PUSH2 0x19A7 JUMP JUMPDEST PUSH1 0x40 MLOAD PUSH1 0x20 DUP2 DUP4 SUB SUB DUP2 MSTORE SWAP1 PUSH1 0x40 MSTORE PUSH2 0x99D JUMP JUMPDEST DUP2 PUSH1 0xE DUP2 MLOAD DUP2 LT PUSH2 0x839 JUMPI PUSH2 0x838 PUSH2 0x1849 JUMP JUMPDEST JUMPDEST PUSH1 0x20 MUL PUSH1 0x20 ADD ADD DUP2 SWAP1 MSTORE POP PUSH1 0x0 DUP7 PUSH2 0x1E0 ADD MLOAD EQ PUSH2 0x8D3 JUMPI PUSH2 0x85F DUP7 PUSH2 0x1E0 ADD MLOAD PUSH2 0xA1B JUMP JUMPDEST DUP2 PUSH1 0xF DUP2 MLOAD DUP2 LT PUSH2 0x873 JUMPI PUSH2 0x872 PUSH2 0x1849 JUMP JUMPDEST JUMPDEST PUSH1 0x20 MUL PUSH1 0x20 ADD ADD DUP2 SWAP1 MSTORE POP PUSH2 0x887 DUP6 PUSH2 0x96C JUMP JUMPDEST DUP2 PUSH1 0x10 DUP2 MLOAD DUP2 LT PUSH2 0x89B JUMPI PUSH2 0x89A PUSH2 0x1849 JUMP JUMPDEST JUMPDEST PUSH1 0x20 MUL PUSH1 0x20 ADD ADD DUP2 SWAP1 MSTORE POP PUSH2 0x8AF DUP5 PUSH2 0x94F JUMP JUMPDEST DUP2 PUSH1 0x11 DUP2 MLOAD DUP2 LT PUSH2 0x8C3 JUMPI PUSH2 0x8C2 PUSH2 0x1849 JUMP JUMPDEST JUMPDEST PUSH1 0x20 MUL PUSH1 0x20 ADD ADD DUP2 SWAP1 MSTORE POP PUSH2 0x924 JUMP JUMPDEST PUSH2 0x8DC DUP6 PUSH2 0x96C JUMP JUMPDEST DUP2 PUSH1 0xF DUP2 MLOAD DUP2 LT PUSH2 0x8F0 JUMPI PUSH2 0x8EF PUSH2 0x1849 JUMP JUMPDEST JUMPDEST PUSH1 0x20 MUL PUSH1 0x20 ADD ADD DUP2 SWAP1 MSTORE POP PUSH2 0x904 DUP5 PUSH2 0x94F JUMP JUMPDEST DUP2 PUSH1 0x10 DUP2 MLOAD DUP2 LT PUSH2 0x918 JUMPI PUSH2 0x917 PUSH2 0x1849 JUMP JUMPDEST JUMPDEST PUSH1 0x20 MUL PUSH1 0x20 ADD ADD DUP2 SWAP1 MSTORE POP JUMPDEST PUSH1 0x0 PUSH2 0x92F DUP3 PUSH2 0xA59 JUMP JUMPDEST SWAP1 POP PUSH2 0x941 DUP2 DUP1 MLOAD SWAP1 PUSH1 0x20 ADD KECCAK256 PUSH2 0xA9D JUMP JUMPDEST SWAP4 POP SWAP4 POP POP POP SWAP4 POP SWAP4 SWAP2 POP POP JUMP JUMPDEST PUSH1 0x60 PUSH2 0x965 PUSH2 0x960 DUP4 PUSH1 0x0 SHR PUSH2 0xAB1 JUMP JUMPDEST PUSH2 0x99D JUMP JUMPDEST SWAP1 POP SWAP2 SWAP1 POP JUMP JUMPDEST PUSH1 0x60 PUSH2 0x996 DUP3 PUSH1 0x40 MLOAD PUSH1 0x20 ADD PUSH2 0x982 SWAP2 SWAP1 PUSH2 0x1AD1 JUMP JUMPDEST PUSH1 0x40 MLOAD PUSH1 0x20 DUP2 DUP4 SUB SUB DUP2 MSTORE SWAP1 PUSH1 0x40 MSTORE PUSH2 0x99D JUMP JUMPDEST SWAP1 POP SWAP2 SWAP1 POP JUMP JUMPDEST PUSH1 0x60 DUP1 PUSH1 0x1 DUP4 MLOAD EQ DUP1 ISZERO PUSH2 0x9D5 JUMPI POP PUSH1 0x80 DUP4 PUSH1 0x0 DUP2 MLOAD DUP2 LT PUSH2 0x9C2 JUMPI PUSH2 0x9C1 PUSH2 0x1849 JUMP JUMPDEST JUMPDEST PUSH1 0x20 ADD ADD MLOAD PUSH1 0xF8 SHR PUSH1 0xF8 SHL PUSH1 0xF8 SHR PUSH1 0xFF AND LT JUMPDEST ISZERO PUSH2 0x9E2 JUMPI DUP3 SWAP1 POP PUSH2 0xA12 JUMP JUMPDEST PUSH2 0x9EE DUP4 MLOAD PUSH1 0x80 PUSH2 0xBBF JUMP JUMPDEST DUP4 PUSH1 0x40 MLOAD PUSH1 0x20 ADD PUSH2 0xA00 SWAP3 SWAP2 SWAP1 PUSH2 0x1B28 JUMP JUMPDEST PUSH1 0x40 MLOAD PUSH1 0x20 DUP2 DUP4 SUB SUB DUP2 MSTORE SWAP1 PUSH1 0x40 MSTORE SWAP1 POP JUMPDEST DUP1 SWAP2 POP POP SWAP2 SWAP1 POP JUMP JUMPDEST PUSH1 0x60 PUSH2 0xA2E PUSH2 0xA29 DUP4 PUSH2 0xE07 JUMP JUMPDEST PUSH2 0x99D JUMP JUMPDEST SWAP1 POP SWAP2 SWAP1 POP JUMP JUMPDEST PUSH1 0x60 PUSH2 0xA52 PUSH2 0xA4D DUP4 PUSH8 0xFFFFFFFFFFFFFFFF AND PUSH2 0xE07 JUMP JUMPDEST PUSH2 0x99D JUMP JUMPDEST SWAP1 POP SWAP2 SWAP1 POP JUMP JUMPDEST PUSH1 0x60 PUSH1 0x0 PUSH2 0xA66 DUP4 PUSH2 0xF8B JUMP JUMPDEST SWAP1 POP PUSH2 0xA74 DUP2 MLOAD PUSH1 0xC0 PUSH2 0xBBF JUMP JUMPDEST DUP2 PUSH1 0x40 MLOAD PUSH1 0x20 ADD PUSH2 0xA86 SWAP3 SWAP2 SWAP1 PUSH2 0x1B28 JUMP JUMPDEST PUSH1 0x40 MLOAD PUSH1 0x20 DUP2 DUP4 SUB SUB DUP2 MSTORE SWAP1 PUSH1 0x40 MSTORE SWAP2 POP POP SWAP2 SWAP1 POP JUMP JUMPDEST PUSH1 0x0 DUP1 DUP3 SWAP2 POP DUP3 PUSH1 0x0 SHR PUSH1 0x80 SHL SWAP1 POP SWAP2 POP SWAP2 JUMP JUMPDEST PUSH1 0x60 PUSH1 0x0 DUP3 PUSH1 0x40 MLOAD PUSH1 0x20 ADD PUSH2 0xAC6 SWAP2 SWAP1 PUSH2 0x1B6D JUMP JUMPDEST PUSH1 0x40 MLOAD PUSH1 0x20 DUP2 DUP4 SUB SUB DUP2 MSTORE SWAP1 PUSH1 0x40 MSTORE SWAP1 POP PUSH1 0x0 DUP1 PUSH1 0x20 PUSH8 0xFFFFFFFFFFFFFFFF DUP2 GT ISZERO PUSH2 0xAF5 JUMPI PUSH2 0xAF4 PUSH2 0x1439 JUMP JUMPDEST JUMPDEST PUSH1 0x40 MLOAD SWAP1 DUP1 DUP3 MSTORE DUP1 PUSH1 0x1F ADD PUSH1 0x1F NOT AND PUSH1 0x20 ADD DUP3 ADD PUSH1 0x40 MSTORE DUP1 ISZERO PUSH2 0xB27 JUMPI DUP2 PUSH1 0x20 ADD PUSH1 0x1 DUP3 MUL DUP1 CALLDATASIZE DUP4 CALLDATACOPY DUP1 DUP3 ADD SWAP2 POP POP SWAP1 POP JUMPDEST POP SWAP1 POP PUSH1 0x0 JUMPDEST DUP2 MLOAD DUP2 LT ISZERO PUSH2 0xBB3 JUMPI DUP4 DUP4 DUP1 PUSH2 0xB42 SWAP1 PUSH2 0x1BB7 JUMP JUMPDEST SWAP5 POP DUP2 MLOAD DUP2 LT PUSH2 0xB55 JUMPI PUSH2 0xB54 PUSH2 0x1849 JUMP JUMPDEST JUMPDEST PUSH1 0x20 ADD ADD MLOAD PUSH1 0xF8 SHR PUSH1 0xF8 SHL DUP3 DUP3 DUP2 MLOAD DUP2 LT PUSH2 0xB73 JUMPI PUSH2 0xB72 PUSH2 0x1849 JUMP JUMPDEST JUMPDEST PUSH1 0x20 ADD ADD SWAP1 PUSH31 0xFFFFFFFFFFFFFFFFFFFFFFFFFFFFFFFFFFFFFFFFFFFFFFFFFFFFFFFFFFFFFF NOT AND SWAP1 DUP2 PUSH1 0x0 BYTE SWAP1 MSTORE8 POP DUP1 PUSH2 0xBAC SWAP1 PUSH2 0x1BB7 JUMP JUMPDEST SWAP1 POP PUSH2 0xB2D JUMP JUMPDEST POP DUP1 SWAP4 POP POP POP POP SWAP2 SWAP1 POP JUMP JUMPDEST PUSH1 0x60 DUP1 PUSH1 0x38 DUP5 LT ISZERO PUSH2 0xC72 JUMPI PUSH1 0x1 PUSH8 0xFFFFFFFFFFFFFFFF DUP2 GT ISZERO PUSH2 0xBE6 JUMPI PUSH2 0xBE5 PUSH2 0x1439 JUMP JUMPDEST JUMPDEST PUSH1 0x40 MLOAD SWAP1 DUP1 DUP3 MSTORE DUP1 PUSH1 0x1F ADD PUSH1 0x1F NOT AND PUSH1 0x20 ADD DUP3 ADD PUSH1 0x40 MSTORE DUP1 ISZERO PUSH2 0xC18 JUMPI DUP2 PUSH1 0x20 ADD PUSH1 0x1 DUP3 MUL DUP1 CALLDATASIZE DUP4 CALLDATACOPY DUP1 DUP3 ADD SWAP2 POP POP SWAP1 POP JUMPDEST POP SWAP1 POP DUP3 DUP5 PUSH2 0xC27 SWAP2 SWAP1 PUSH2 0x1C0D JUMP JUMPDEST PUSH1 0xF8 SHL DUP2 PUSH1 0x0 DUP2 MLOAD DUP2 LT PUSH2 0xC3E JUMPI PUSH2 0xC3D PUSH2 0x1849 JUMP JUMPDEST JUMPDEST PUSH1 0x20 ADD ADD SWAP1 PUSH31 0xFFFFFFFFFFFFFFFFFFFFFFFFFFFFFFFFFFFFFFFFFFFFFFFFFFFFFFFFFFFFFF NOT AND SWAP1 DUP2 PUSH1 0x0 BYTE SWAP1 MSTORE8 POP PUSH2 0xDFD JUMP JUMPDEST PUSH1 0x0 DUP1 PUSH1 0x1 SWAP1 POP JUMPDEST PUSH1 0x0 DUP2 DUP8 PUSH2 0xC88 SWAP2 SWAP1 PUSH2 0x1C73 JUMP JUMPDEST EQ PUSH2 0xCAE JUMPI DUP2 PUSH2 0xC97 SWAP1 PUSH2 0x1BB7 JUMP JUMPDEST SWAP2 POP PUSH2 0x100 DUP2 PUSH2 0xCA7 SWAP2 SWAP1 PUSH2 0x1CA4 JUMP JUMPDEST SWAP1 POP PUSH2 0xC7A JUMP JUMPDEST PUSH1 0x1 DUP3 PUSH2 0xCBB SWAP2 SWAP1 PUSH2 0x1CFE JUMP JUMPDEST PUSH8 0xFFFFFFFFFFFFFFFF DUP2 GT ISZERO PUSH2 0xCD4 JUMPI PUSH2 0xCD3 PUSH2 0x1439 JUMP JUMPDEST JUMPDEST PUSH1 0x40 MLOAD SWAP1 DUP1 DUP3 MSTORE DUP1 PUSH1 0x1F ADD PUSH1 0x1F NOT AND PUSH1 0x20 ADD DUP3 ADD PUSH1 0x40 MSTORE DUP1 ISZERO PUSH2 0xD06 JUMPI DUP2 PUSH1 0x20 ADD PUSH1 0x1 DUP3 MUL DUP1 CALLDATASIZE DUP4 CALLDATACOPY DUP1 DUP3 ADD SWAP2 POP POP SWAP1 POP JUMPDEST POP SWAP3 POP PUSH1 0x37 DUP6 DUP4 PUSH2 0xD17 SWAP2 SWAP1 PUSH2 0x1C0D JUMP JUMPDEST PUSH2 0xD21 SWAP2 SWAP1 PUSH2 0x1C0D JUMP JUMPDEST PUSH1 0xF8 SHL DUP4 PUSH1 0x0 DUP2 MLOAD DUP2 LT PUSH2 0xD38 JUMPI PUSH2 0xD37 PUSH2 0x1849 JUMP JUMPDEST JUMPDEST PUSH1 0x20 ADD ADD SWAP1 PUSH31 0xFFFFFFFFFFFFFFFFFFFFFFFFFFFFFFFFFFFFFFFFFFFFFFFFFFFFFFFFFFFFFF NOT AND SWAP1 DUP2 PUSH1 0x0 BYTE SWAP1 MSTORE8 POP PUSH1 0x1 SWAP1 POP JUMPDEST DUP2 DUP2 GT PUSH2 0xDFA JUMPI PUSH2 0x100 DUP2 DUP4 PUSH2 0xD82 SWAP2 SWAP1 PUSH2 0x1D54 JUMP JUMPDEST PUSH2 0x100 PUSH2 0xD8F SWAP2 SWAP1 PUSH2 0x1EBB JUMP JUMPDEST DUP8 PUSH2 0xD9A SWAP2 SWAP1 PUSH2 0x1C73 JUMP JUMPDEST PUSH2 0xDA4 SWAP2 SWAP1 PUSH2 0x1F06 JUMP JUMPDEST PUSH1 0xF8 SHL DUP4 DUP3 DUP2 MLOAD DUP2 LT PUSH2 0xDBA JUMPI PUSH2 0xDB9 PUSH2 0x1849 JUMP JUMPDEST JUMPDEST PUSH1 0x20 ADD ADD SWAP1 PUSH31 0xFFFFFFFFFFFFFFFFFFFFFFFFFFFFFFFFFFFFFFFFFFFFFFFFFFFFFFFFFFFFFF NOT AND SWAP1 DUP2 PUSH1 0x0 BYTE SWAP1 MSTORE8 POP DUP1 PUSH2 0xDF3 SWAP1 PUSH2 0x1BB7 JUMP JUMPDEST SWAP1 POP PUSH2 0xD6C JUMP JUMPDEST POP POP JUMPDEST DUP1 SWAP2 POP POP SWAP3 SWAP2 POP POP JUMP JUMPDEST PUSH1 0x60 PUSH1 0x0 DUP3 PUSH1 0x40 MLOAD PUSH1 0x20 ADD PUSH2 0xE1C SWAP2 SWAP1 PUSH2 0x1B6D JUMP JUMPDEST PUSH1 0x40 MLOAD PUSH1 0x20 DUP2 DUP4 SUB SUB DUP2 MSTORE SWAP1 PUSH1 0x40 MSTORE SWAP1 POP PUSH1 0x0 JUMPDEST PUSH1 0x20 DUP2 LT ISZERO PUSH2 0xE99 JUMPI PUSH1 0x0 PUSH1 0xF8 SHL DUP3 DUP3 DUP2 MLOAD DUP2 LT PUSH2 0xE51 JUMPI PUSH2 0xE50 PUSH2 0x1849 JUMP JUMPDEST JUMPDEST PUSH1 0x20 ADD ADD MLOAD PUSH1 0xF8 SHR PUSH1 0xF8 SHL PUSH31 0xFFFFFFFFFFFFFFFFFFFFFFFFFFFFFFFFFFFFFFFFFFFFFFFFFFFFFFFFFFFFFF NOT AND EQ PUSH2 0xE88 JUMPI PUSH2 0xE99 JUMP JUMPDEST DUP1 PUSH2 0xE92 SWAP1 PUSH2 0x1BB7 JUMP JUMPDEST SWAP1 POP PUSH2 0xE30 JUMP JUMPDEST PUSH1 0x0 DUP2 PUSH1 0x20 PUSH2 0xEA8 SWAP2 SWAP1 PUSH2 0x1D54 JUMP JUMPDEST PUSH8 0xFFFFFFFFFFFFFFFF DUP2 GT ISZERO PUSH2 0xEC1 JUMPI PUSH2 0xEC0 PUSH2 0x1439 JUMP JUMPDEST JUMPDEST PUSH1 0x40 MLOAD SWAP1 DUP1 DUP3 MSTORE DUP1 PUSH1 0x1F ADD PUSH1 0x1F NOT AND PUSH1 0x20 ADD DUP3 ADD PUSH1 0x40 MSTORE DUP1 ISZERO PUSH2 0xEF3 JUMPI DUP2 PUSH1 0x20 ADD PUSH1 0x1 DUP3 MUL DUP1 CALLDATASIZE DUP4 CALLDATACOPY DUP1 DUP3 ADD SWAP2 POP POP SWAP1 POP JUMPDEST POP SWAP1 POP PUSH1 0x0 JUMPDEST DUP2 MLOAD DUP2 LT ISZERO PUSH2 0xF7F JUMPI DUP4 DUP4 DUP1 PUSH2 0xF0E SWAP1 PUSH2 0x1BB7 JUMP JUMPDEST SWAP5 POP DUP2 MLOAD DUP2 LT PUSH2 0xF21 JUMPI PUSH2 0xF20 PUSH2 0x1849 JUMP JUMPDEST JUMPDEST PUSH1 0x20 ADD ADD MLOAD PUSH1 0xF8 SHR PUSH1 0xF8 SHL DUP3 DUP3 DUP2 MLOAD DUP2 LT PUSH2 0xF3F JUMPI PUSH2 0xF3E PUSH2 0x1849 JUMP JUMPDEST JUMPDEST PUSH1 0x20 ADD ADD SWAP1 PUSH31 0xFFFFFFFFFFFFFFFFFFFFFFFFFFFFFFFFFFFFFFFFFFFFFFFFFFFFFFFFFFFFFF NOT AND SWAP1 DUP2 PUSH1 0x0 BYTE SWAP1 MSTORE8 POP DUP1 PUSH2 0xF78 SWAP1 PUSH2 0x1BB7 JUMP JUMPDEST SWAP1 POP PUSH2 0xEF9 JUMP JUMPDEST POP DUP1 SWAP4 POP POP POP POP SWAP2 SWAP1 POP JUMP JUMPDEST PUSH1 0x60 PUSH1 0x0 DUP3 MLOAD EQ ISZERO PUSH2 0xFEC JUMPI PUSH1 0x0 PUSH8 0xFFFFFFFFFFFFFFFF DUP2 GT ISZERO PUSH2 0xFB2 JUMPI PUSH2 0xFB1 PUSH2 0x1439 JUMP JUMPDEST JUMPDEST PUSH1 0x40 MLOAD SWAP1 DUP1 DUP3 MSTORE DUP1 PUSH1 0x1F ADD PUSH1 0x1F NOT AND PUSH1 0x20 ADD DUP3 ADD PUSH1 0x40 MSTORE DUP1 ISZERO PUSH2 0xFE4 JUMPI DUP2 PUSH1 0x20 ADD PUSH1 0x1 DUP3 MUL DUP1 CALLDATASIZE DUP4 CALLDATACOPY DUP1 DUP3 ADD SWAP2 POP POP SWAP1 POP JUMPDEST POP SWAP1 POP PUSH2 0x1115 JUMP JUMPDEST PUSH1 0x0 DUP1 PUSH1 0x0 SWAP1 POP JUMPDEST DUP4 MLOAD DUP2 LT ISZERO PUSH2 0x1037 JUMPI DUP4 DUP2 DUP2 MLOAD DUP2 LT PUSH2 0x1010 JUMPI PUSH2 0x100F PUSH2 0x1849 JUMP JUMPDEST JUMPDEST PUSH1 0x20 MUL PUSH1 0x20 ADD ADD MLOAD MLOAD DUP3 PUSH2 0x1024 SWAP2 SWAP1 PUSH2 0x1CFE JUMP JUMPDEST SWAP2 POP DUP1 PUSH2 0x1030 SWAP1 PUSH2 0x1BB7 JUMP JUMPDEST SWAP1 POP PUSH2 0xFF4 JUMP JUMPDEST PUSH1 0x0 DUP3 PUSH8 0xFFFFFFFFFFFFFFFF DUP2 GT ISZERO PUSH2 0x1053 JUMPI PUSH2 0x1052 PUSH2 0x1439 JUMP JUMPDEST JUMPDEST PUSH1 0x40 MLOAD SWAP1 DUP1 DUP3 MSTORE DUP1 PUSH1 0x1F ADD PUSH1 0x1F NOT AND PUSH1 0x20 ADD DUP3 ADD PUSH1 0x40 MSTORE DUP1 ISZERO PUSH2 0x1085 JUMPI DUP2 PUSH1 0x20 ADD PUSH1 0x1 DUP3 MUL DUP1 CALLDATASIZE DUP4 CALLDATACOPY DUP1 DUP3 ADD SWAP2 POP POP SWAP1 POP JUMPDEST POP SWAP1 POP PUSH1 0x0 PUSH1 0x20 DUP3 ADD SWAP1 POP PUSH1 0x0 SWAP3 POP JUMPDEST DUP6 MLOAD DUP4 LT ISZERO PUSH2 0x110D JUMPI PUSH1 0x0 DUP7 DUP5 DUP2 MLOAD DUP2 LT PUSH2 0x10B3 JUMPI PUSH2 0x10B2 PUSH2 0x1849 JUMP JUMPDEST JUMPDEST PUSH1 0x20 MUL PUSH1 0x20 ADD ADD MLOAD SWAP1 POP PUSH1 0x0 PUSH1 0x20 DUP3 ADD SWAP1 POP PUSH2 0x10D1 DUP4 DUP3 DUP5 MLOAD PUSH2 0x111A JUMP JUMPDEST DUP8 DUP6 DUP2 MLOAD DUP2 LT PUSH2 0x10E4 JUMPI PUSH2 0x10E3 PUSH2 0x1849 JUMP JUMPDEST JUMPDEST PUSH1 0x20 MUL PUSH1 0x20 ADD ADD MLOAD MLOAD DUP4 PUSH2 0x10F8 SWAP2 SWAP1 PUSH2 0x1CFE JUMP JUMPDEST SWAP3 POP POP POP DUP3 PUSH2 0x1106 SWAP1 PUSH2 0x1BB7 JUMP JUMPDEST SWAP3 POP PUSH2 0x1095 JUMP JUMPDEST DUP2 SWAP5 POP POP POP POP POP JUMPDEST SWAP2 SWAP1 POP JUMP JUMPDEST PUSH1 0x0 DUP4 SWAP1 POP PUSH1 0x0 DUP4 SWAP1 POP PUSH1 0x0 DUP4 SWAP1 POP JUMPDEST PUSH1 0x20 DUP2 LT PUSH2 0x1168 JUMPI DUP2 MLOAD DUP4 MSTORE PUSH1 0x20 DUP4 PUSH2 0x1143 SWAP2 SWAP1 PUSH2 0x1CFE JUMP JUMPDEST SWAP3 POP PUSH1 0x20 DUP3 PUSH2 0x1152 SWAP2 SWAP1 PUSH2 0x1CFE JUMP JUMPDEST SWAP2 POP PUSH1 0x20 DUP2 PUSH2 0x1161 SWAP2 SWAP1 PUSH2 0x1D54 JUMP JUMPDEST SWAP1 POP PUSH2 0x112A JUMP JUMPDEST PUSH1 0x0 PUSH1 0x1 DUP3 PUSH1 0x20 SUB PUSH2 0x100 EXP SUB SWAP1 POP DUP1 NOT DUP4 MLOAD AND DUP2 DUP6 MLOAD AND DUP2 DUP2 OR DUP7 MSTORE POP POP POP POP POP POP POP POP POP JUMP JUMPDEST PUSH1 0x0 PUSH1 0x40 MLOAD SWAP1 POP SWAP1 JUMP JUMPDEST PUSH1 0x0 DUP1 REVERT JUMPDEST PUSH1 0x0 DUP1 REVERT JUMPDEST PUSH1 0x0 DUP1 REVERT JUMPDEST PUSH1 0x0 PUSH2 0x2E0 DUP3 DUP5 SUB SLT ISZERO PUSH2 0x11C0 JUMPI PUSH2 0x11BF PUSH2 0x11A4 JUMP JUMPDEST JUMPDEST DUP2 SWAP1 POP SWAP3 SWAP2 POP POP JUMP JUMPDEST PUSH1 0x0 PUSH20 0xFFFFFFFFFFFFFFFFFFFFFFFFFFFFFFFFFFFFFFFF DUP3 AND SWAP1 POP SWAP2 SWAP1 POP JUMP JUMPDEST PUSH1 0x0 PUSH2 0x11F4 DUP3 PUSH2 0x11C9 JUMP JUMPDEST SWAP1 POP SWAP2 SWAP1 POP JUMP JUMPDEST PUSH2 0x1204 DUP2 PUSH2 0x11E9 JUMP JUMPDEST DUP2 EQ PUSH2 0x120F JUMPI PUSH1 0x0 DUP1 REVERT JUMPDEST POP JUMP JUMPDEST PUSH1 0x0 DUP2 CALLDATALOAD SWAP1 POP PUSH2 0x1221 DUP2 PUSH2 0x11FB JUMP JUMPDEST SWAP3 SWAP2 POP POP JUMP JUMPDEST PUSH1 0x0 DUP2 SWAP1 POP SWAP2 SWAP1 POP JUMP JUMPDEST PUSH2 0x123A DUP2 PUSH2 0x1227 JUMP JUMPDEST DUP2 EQ PUSH2 0x1245 JUMPI PUSH1 0x0 DUP1 REVERT JUMPDEST POP JUMP JUMPDEST PUSH1 0x0 DUP2 CALLDATALOAD SWAP1 POP PUSH2 0x1257 DUP2 PUSH2 0x1231 JUMP JUMPDEST SWAP3 SWAP2 POP POP JUMP JUMPDEST PUSH1 0x0 DUP1 PUSH1 0x0 PUSH1 0x60 DUP5 DUP7 SUB SLT ISZERO PUSH2 0x1276 JUMPI PUSH2 0x1275 PUSH2 0x119A JUMP JUMPDEST JUMPDEST PUSH1 0x0 DUP5 ADD CALLDATALOAD PUSH8 0xFFFFFFFFFFFFFFFF DUP2 GT ISZERO PUSH2 0x1294 JUMPI PUSH2 0x1293 PUSH2 0x119F JUMP JUMPDEST JUMPDEST PUSH2 0x12A0 DUP7 DUP3 DUP8 ADD PUSH2 0x11A9 JUMP JUMPDEST SWAP4 POP POP PUSH1 0x20 PUSH2 0x12B1 DUP7 DUP3 DUP8 ADD PUSH2 0x1212 JUMP JUMPDEST SWAP3 POP POP PUSH1 0x40 PUSH2 0x12C2 DUP7 DUP3 DUP8 ADD PUSH2 0x1248 JUMP JUMPDEST SWAP2 POP POP SWAP3 POP SWAP3 POP SWAP3 JUMP JUMPDEST PUSH1 0x0 PUSH32 0xFFFFFFFFFFFFFFFFFFFFFFFFFFFFFFFF00000000000000000000000000000000 DUP3 AND SWAP1 POP SWAP2 SWAP1 POP JUMP JUMPDEST PUSH2 0x1301 DUP2 PUSH2 0x12CC JUMP JUMPDEST DUP3 MSTORE POP POP JUMP JUMPDEST PUSH1 0x0 PUSH1 0x40 DUP3 ADD SWAP1 POP PUSH2 0x131C PUSH1 0x0 DUP4 ADD DUP6 PUSH2 0x12F8 JUMP JUMPDEST PUSH2 0x1329 PUSH1 0x20 DUP4 ADD DUP5 PUSH2 0x12F8 JUMP JUMPDEST SWAP4 SWAP3 POP POP POP JUMP JUMPDEST PUSH1 0x0 PUSH1 0x20 DUP3 DUP5 SUB SLT ISZERO PUSH2 0x1346 JUMPI PUSH2 0x1345 PUSH2 0x119A JUMP JUMPDEST JUMPDEST PUSH1 0x0 DUP3 ADD CALLDATALOAD PUSH8 0xFFFFFFFFFFFFFFFF DUP2 GT ISZERO PUSH2 0x1364 JUMPI PUSH2 0x1363 PUSH2 0x119F JUMP JUMPDEST JUMPDEST PUSH2 0x1370 DUP5 DUP3 DUP6 ADD PUSH2 0x11A9 JUMP JUMPDEST SWAP2 POP POP SWAP3 SWAP2 POP POP JUMP JUMPDEST PUSH1 0x0 DUP2 MLOAD SWAP1 POP SWAP2 SWAP1 POP JUMP JUMPDEST PUSH1 0x0 DUP3 DUP3 MSTORE PUSH1 0x20 DUP3 ADD SWAP1 POP SWAP3 SWAP2 POP POP JUMP JUMPDEST PUSH1 0x0 JUMPDEST DUP4 DUP2 LT ISZERO PUSH2 0x13B3 JUMPI DUP1 DUP3 ADD MLOAD DUP2 DUP5 ADD MSTORE PUSH1 0x20 DUP2 ADD SWAP1 POP PUSH2 0x1398 JUMP JUMPDEST DUP4 DUP2 GT ISZERO PUSH2 0x13C2 JUMPI PUSH1 0x0 DUP5 DUP5 ADD MSTORE JUMPDEST POP POP POP POP JUMP JUMPDEST PUSH1 0x0 PUSH1 0x1F NOT PUSH1 0x1F DUP4 ADD AND SWAP1 POP SWAP2 SWAP1 POP JUMP JUMPDEST PUSH1 0x0 PUSH2 0x13E4 DUP3 PUSH2 0x1379 JUMP JUMPDEST PUSH2 0x13EE DUP2 DUP6 PUSH2 0x1384 JUMP JUMPDEST SWAP4 POP PUSH2 0x13FE DUP2 DUP6 PUSH1 0x20 DUP7 ADD PUSH2 0x1395 JUMP JUMPDEST PUSH2 0x1407 DUP2 PUSH2 0x13C8 JUMP JUMPDEST DUP5 ADD SWAP2 POP POP SWAP3 SWAP2 POP POP JUMP JUMPDEST PUSH1 0x0 PUSH1 0x20 DUP3 ADD SWAP1 POP DUP2 DUP2 SUB PUSH1 0x0 DUP4 ADD MSTORE PUSH2 0x142C DUP2 DUP5 PUSH2 0x13D9 JUMP JUMPDEST SWAP1 POP SWAP3 SWAP2 POP POP JUMP JUMPDEST PUSH1 0x0 DUP1 REVERT JUMPDEST PUSH32 0x4E487B7100000000000000000000000000000000000000000000000000000000 PUSH1 0x0 MSTORE PUSH1 0x41 PUSH1 0x4 MSTORE PUSH1 0x24 PUSH1 0x0 REVERT JUMPDEST PUSH2 0x1471 DUP3 PUSH2 0x13C8 JUMP JUMPDEST DUP2 ADD DUP2 DUP2 LT PUSH8 0xFFFFFFFFFFFFFFFF DUP3 GT OR ISZERO PUSH2 0x1490 JUMPI PUSH2 0x148F PUSH2 0x1439 JUMP JUMPDEST JUMPDEST DUP1 PUSH1 0x40 MSTORE POP POP POP JUMP JUMPDEST PUSH1 0x0 PUSH2 0x14A3 PUSH2 0x1190 JUMP JUMPDEST SWAP1 POP PUSH2 0x14AF DUP3 DUP3 PUSH2 0x1468 JUMP JUMPDEST SWAP2 SWAP1 POP JUMP JUMPDEST PUSH1 0x0 DUP1 REVERT JUMPDEST PUSH1 0x0 DUP1 REVERT JUMPDEST PUSH1 0x0 PUSH8 0xFFFFFFFFFFFFFFFF DUP3 GT ISZERO PUSH2 0x14D9 JUMPI PUSH2 0x14D8 PUSH2 0x1439 JUMP JUMPDEST JUMPDEST PUSH1 0x20 DUP3 MUL SWAP1 POP SWAP2 SWAP1 POP JUMP JUMPDEST PUSH1 0x0 DUP1 REVERT JUMPDEST PUSH1 0x0 PUSH2 0x14FC PUSH2 0x14F7 DUP5 PUSH2 0x14BE JUMP JUMPDEST PUSH2 0x1499 JUMP JUMPDEST SWAP1 POP DUP1 PUSH1 0x20 DUP5 MUL DUP4 ADD DUP6 DUP2 GT ISZERO PUSH2 0x1516 JUMPI PUSH2 0x1515 PUSH2 0x14E4 JUMP JUMPDEST JUMPDEST DUP4 JUMPDEST DUP2 DUP2 LT ISZERO PUSH2 0x153F JUMPI DUP1 PUSH2 0x152B DUP9 DUP3 PUSH2 0x1248 JUMP JUMPDEST DUP5 MSTORE PUSH1 0x20 DUP5 ADD SWAP4 POP POP PUSH1 0x20 DUP2 ADD SWAP1 POP PUSH2 0x1518 JUMP JUMPDEST POP POP POP SWAP4 SWAP3 POP POP POP JUMP JUMPDEST PUSH1 0x0 DUP3 PUSH1 0x1F DUP4 ADD SLT PUSH2 0x155E JUMPI PUSH2 0x155D PUSH2 0x14B9 JUMP JUMPDEST JUMPDEST PUSH1 0x8 PUSH2 0x156B DUP5 DUP3 DUP6 PUSH2 0x14E9 JUMP JUMPDEST SWAP2 POP POP SWAP3 SWAP2 POP POP JUMP JUMPDEST PUSH1 0x0 DUP2 SWAP1 POP SWAP2 SWAP1 POP JUMP JUMPDEST PUSH2 0x1587 DUP2 PUSH2 0x1574 JUMP JUMPDEST DUP2 EQ PUSH2 0x1592 JUMPI PUSH1 0x0 DUP1 REVERT JUMPDEST POP JUMP JUMPDEST PUSH1 0x0 DUP2 CALLDATALOAD SWAP1 POP PUSH2 0x15A4 DUP2 PUSH2 0x157E JUMP JUMPDEST SWAP3 SWAP2 POP POP JUMP JUMPDEST PUSH1 0x0 PUSH8 0xFFFFFFFFFFFFFFFF DUP3 AND SWAP1 POP SWAP2 SWAP1 POP JUMP JUMPDEST PUSH2 0x15C7 DUP2 PUSH2 0x15AA JUMP JUMPDEST DUP2 EQ PUSH2 0x15D2 JUMPI PUSH1 0x0 DUP1 REVERT JUMPDEST POP JUMP JUMPDEST PUSH1 0x0 DUP2 CALLDATALOAD SWAP1 POP PUSH2 0x15E4 DUP2 PUSH2 0x15BE JUMP JUMPDEST SWAP3 SWAP2 POP POP JUMP JUMPDEST PUSH1 0x0 DUP1 REVERT JUMPDEST PUSH1 0x0 PUSH8 0xFFFFFFFFFFFFFFFF DUP3 GT ISZERO PUSH2 0x160A JUMPI PUSH2 0x1609 PUSH2 0x1439 JUMP JUMPDEST JUMPDEST PUSH2 0x1613 DUP3 PUSH2 0x13C8 JUMP JUMPDEST SWAP1 POP PUSH1 0x20 DUP2 ADD SWAP1 POP SWAP2 SWAP1 POP JUMP JUMPDEST DUP3 DUP2 DUP4 CALLDATACOPY PUSH1 0x0 DUP4 DUP4 ADD MSTORE POP POP POP JUMP JUMPDEST PUSH1 0x0 PUSH2 0x1642 PUSH2 0x163D DUP5 PUSH2 0x15EF JUMP JUMPDEST PUSH2 0x1499 JUMP JUMPDEST SWAP1 POP DUP3 DUP2 MSTORE PUSH1 0x20 DUP2 ADD DUP5 DUP5 DUP5 ADD GT ISZERO PUSH2 0x165E JUMPI PUSH2 0x165D PUSH2 0x15EA JUMP JUMPDEST JUMPDEST PUSH2 0x1669 DUP5 DUP3 DUP6 PUSH2 0x1620 JUMP JUMPDEST POP SWAP4 SWAP3 POP POP POP JUMP JUMPDEST PUSH1 0x0 DUP3 PUSH1 0x1F DUP4 ADD SLT PUSH2 0x1686 JUMPI PUSH2 0x1685 PUSH2 0x14B9 JUMP JUMPDEST JUMPDEST DUP2 CALLDATALOAD PUSH2 0x1696 DUP5 DUP3 PUSH1 0x20 DUP7 ADD PUSH2 0x162F JUMP JUMPDEST SWAP2 POP POP SWAP3 SWAP2 POP POP JUMP JUMPDEST PUSH1 0x0 PUSH2 0x2E0 DUP3 DUP5 SUB SLT ISZERO PUSH2 0x16B6 JUMPI PUSH2 0x16B5 PUSH2 0x1434 JUMP JUMPDEST JUMPDEST PUSH2 0x16C1 PUSH2 0x200 PUSH2 0x1499 JUMP JUMPDEST SWAP1 POP PUSH1 0x0 PUSH2 0x16D1 DUP5 DUP3 DUP6 ADD PUSH2 0x1248 JUMP JUMPDEST PUSH1 0x0 DUP4 ADD MSTORE POP PUSH1 0x20 PUSH2 0x16E5 DUP5 DUP3 DUP6 ADD PUSH2 0x1248 JUMP JUMPDEST PUSH1 0x20 DUP4 ADD MSTORE POP PUSH1 0x40 PUSH2 0x16F9 DUP5 DUP3 DUP6 ADD PUSH2 0x1212 JUMP JUMPDEST PUSH1 0x40 DUP4 ADD MSTORE POP PUSH1 0x60 PUSH2 0x170D DUP5 DUP3 DUP6 ADD PUSH2 0x1248 JUMP JUMPDEST PUSH1 0x60 DUP4 ADD MSTORE POP PUSH1 0x80 PUSH2 0x1721 DUP5 DUP3 DUP6 ADD PUSH2 0x1248 JUMP JUMPDEST PUSH1 0x80 DUP4 ADD MSTORE POP PUSH1 0xA0 PUSH2 0x1735 DUP5 DUP3 DUP6 ADD PUSH2 0x1248 JUMP JUMPDEST PUSH1 0xA0 DUP4 ADD MSTORE POP PUSH1 0xC0 PUSH2 0x1749 DUP5 DUP3 DUP6 ADD PUSH2 0x1549 JUMP JUMPDEST PUSH1 0xC0 DUP4 ADD MSTORE POP PUSH2 0x1C0 PUSH2 0x175E DUP5 DUP3 DUP6 ADD PUSH2 0x1595 JUMP JUMPDEST PUSH1 0xE0 DUP4 ADD MSTORE POP PUSH2 0x1E0 PUSH2 0x1773 DUP5 DUP3 DUP6 ADD PUSH2 0x15D5 JUMP JUMPDEST PUSH2 0x100 DUP4 ADD MSTORE POP PUSH2 0x200 PUSH2 0x1789 DUP5 DUP3 DUP6 ADD PUSH2 0x15D5 JUMP JUMPDEST PUSH2 0x120 DUP4 ADD MSTORE POP PUSH2 0x220 PUSH2 0x179F DUP5 DUP3 DUP6 ADD PUSH2 0x15D5 JUMP JUMPDEST PUSH2 0x140 DUP4 ADD MSTORE POP PUSH2 0x240 PUSH2 0x17B5 DUP5 DUP3 DUP6 ADD PUSH2 0x15D5 JUMP JUMPDEST PUSH2 0x160 DUP4 ADD MSTORE POP PUSH2 0x260 DUP3 ADD CALLDATALOAD PUSH8 0xFFFFFFFFFFFFFFFF DUP2 GT ISZERO PUSH2 0x17DB JUMPI PUSH2 0x17DA PUSH2 0x14B4 JUMP JUMPDEST JUMPDEST PUSH2 0x17E7 DUP5 DUP3 DUP6 ADD PUSH2 0x1671 JUMP JUMPDEST PUSH2 0x180 DUP4 ADD MSTORE POP PUSH2 0x280 PUSH2 0x17FD DUP5 DUP3 DUP6 ADD PUSH2 0x1248 JUMP JUMPDEST PUSH2 0x1A0 DUP4 ADD MSTORE POP PUSH2 0x2A0 PUSH2 0x1813 DUP5 DUP3 DUP6 ADD PUSH2 0x15D5 JUMP JUMPDEST PUSH2 0x1C0 DUP4 ADD MSTORE POP PUSH2 0x2C0 PUSH2 0x1829 DUP5 DUP3 DUP6 ADD PUSH2 0x1595 JUMP JUMPDEST PUSH2 0x1E0 DUP4 ADD MSTORE POP SWAP3 SWAP2 POP POP JUMP JUMPDEST PUSH1 0x0 PUSH2 0x1842 CALLDATASIZE DUP4 PUSH2 0x169F JUMP JUMPDEST SWAP1 POP SWAP2 SWAP1 POP JUMP JUMPDEST PUSH32 0x4E487B7100000000000000000000000000000000000000000000000000000000 PUSH1 0x0 MSTORE PUSH1 0x32 PUSH1 0x4 MSTORE PUSH1 0x24 PUSH1 0x0 REVERT JUMPDEST PUSH1 0x0 PUSH1 0x20 DUP3 DUP5 SUB SLT ISZERO PUSH2 0x188E JUMPI PUSH2 0x188D PUSH2 0x119A JUMP JUMPDEST JUMPDEST PUSH1 0x0 PUSH2 0x189C DUP5 DUP3 DUP6 ADD PUSH2 0x1212 JUMP JUMPDEST SWAP2 POP POP SWAP3 SWAP2 POP POP JUMP JUMPDEST PUSH2 0x18B2 PUSH2 0x100 DUP4 DUP4 PUSH2 0x1620 JUMP JUMPDEST POP POP JUMP JUMPDEST PUSH1 0x0 PUSH2 0x18C2 DUP3 DUP5 PUSH2 0x18A5 JUMP JUMPDEST PUSH2 0x100 DUP3 ADD SWAP2 POP DUP2 SWAP1 POP SWAP3 SWAP2 POP POP JUMP JUMPDEST PUSH1 0x0 PUSH1 0x20 DUP3 DUP5 SUB SLT ISZERO PUSH2 0x18E8 JUMPI PUSH2 0x18E7 PUSH2 0x119A JUMP JUMPDEST JUMPDEST PUSH1 0x0 PUSH2 0x18F6 DUP5 DUP3 DUP6 ADD PUSH2 0x15D5 JUMP JUMPDEST SWAP2 POP POP SWAP3 SWAP2 POP POP JUMP JUMPDEST PUSH1 0x0 DUP1 REVERT JUMPDEST PUSH1 0x0 DUP1 REVERT JUMPDEST PUSH1 0x0 DUP1 REVERT JUMPDEST PUSH1 0x0 DUP1 DUP4 CALLDATALOAD PUSH1 0x1 PUSH1 0x20 SUB DUP5 CALLDATASIZE SUB SUB DUP2 SLT PUSH2 0x192B JUMPI PUSH2 0x192A PUSH2 0x18FF JUMP JUMPDEST JUMPDEST DUP1 DUP5 ADD SWAP3 POP DUP3 CALLDATALOAD SWAP2 POP PUSH8 0xFFFFFFFFFFFFFFFF DUP3 GT ISZERO PUSH2 0x194D JUMPI PUSH2 0x194C PUSH2 0x1904 JUMP JUMPDEST JUMPDEST PUSH1 0x20 DUP4 ADD SWAP3 POP PUSH1 0x1 DUP3 MUL CALLDATASIZE SUB DUP4 SGT ISZERO PUSH2 0x1969 JUMPI PUSH2 0x1968 PUSH2 0x1909 JUMP JUMPDEST JUMPDEST POP SWAP3 POP SWAP3 SWAP1 POP JUMP JUMPDEST PUSH1 0x0 DUP2 PUSH1 0xC0 SHL SWAP1 POP SWAP2 SWAP1 POP JUMP JUMPDEST PUSH1 0x0 PUSH2 0x1989 DUP3 PUSH2 0x1971 JUMP JUMPDEST SWAP1 POP SWAP2 SWAP1 POP JUMP JUMPDEST PUSH2 0x19A1 PUSH2 0x199C DUP3 PUSH2 0x15AA JUMP JUMPDEST PUSH2 0x197E JUMP JUMPDEST DUP3 MSTORE POP POP JUMP JUMPDEST PUSH1 0x0 PUSH2 0x19B3 DUP3 DUP5 PUSH2 0x1990 JUMP JUMPDEST PUSH1 0x8 DUP3 ADD SWAP2 POP DUP2 SWAP1 POP SWAP3 SWAP2 POP POP JUMP JUMPDEST PUSH1 0x0 PUSH1 0x8 SWAP1 POP SWAP2 SWAP1 POP JUMP JUMPDEST PUSH1 0x0 DUP2 SWAP1 POP SWAP3 SWAP2 POP POP JUMP JUMPDEST PUSH1 0x0 DUP2 SWAP1 POP SWAP2 SWAP1 POP JUMP JUMPDEST PUSH2 0x19EB DUP2 PUSH2 0x1227 JUMP JUMPDEST DUP3 MSTORE POP POP JUMP JUMPDEST PUSH1 0x0 PUSH2 0x19FD DUP4 DUP4 PUSH2 0x19E2 JUMP JUMPDEST PUSH1 0x20 DUP4 ADD SWAP1 POP SWAP3 SWAP2 POP POP JUMP JUMPDEST PUSH1 0x0 PUSH1 0x20 DUP3 ADD SWAP1 POP SWAP2 SWAP1 POP JUMP JUMPDEST PUSH2 0x1A1F DUP2 PUSH2 0x19C2 JUMP JUMPDEST PUSH2 0x1A29 DUP2 DUP5 PUSH2 0x19CD JUMP JUMPDEST SWAP3 POP PUSH2 0x1A34 DUP3 PUSH2 0x19D8 JUMP JUMPDEST DUP1 PUSH1 0x0 JUMPDEST DUP4 DUP2 LT ISZERO PUSH2 0x1A65 JUMPI DUP2 MLOAD PUSH2 0x1A4C DUP8 DUP3 PUSH2 0x19F1 JUMP JUMPDEST SWAP7 POP PUSH2 0x1A57 DUP4 PUSH2 0x1A09 JUMP JUMPDEST SWAP3 POP POP PUSH1 0x1 DUP2 ADD SWAP1 POP PUSH2 0x1A38 JUMP JUMPDEST POP POP POP POP POP POP JUMP JUMPDEST PUSH1 0x0 PUSH2 0x1A79 DUP3 DUP5 PUSH2 0x1A16 JUMP JUMPDEST PUSH2 0x100 DUP3 ADD SWAP2 POP DUP2 SWAP1 POP SWAP3 SWAP2 POP POP JUMP JUMPDEST PUSH1 0x0 DUP2 PUSH1 0x60 SHL SWAP1 POP SWAP2 SWAP1 POP JUMP JUMPDEST PUSH1 0x0 PUSH2 0x1AA1 DUP3 PUSH2 0x1A89 JUMP JUMPDEST SWAP1 POP SWAP2 SWAP1 POP JUMP JUMPDEST PUSH1 0x0 PUSH2 0x1AB3 DUP3 PUSH2 0x1A96 JUMP JUMPDEST SWAP1 POP SWAP2 SWAP1 POP JUMP JUMPDEST PUSH2 0x1ACB PUSH2 0x1AC6 DUP3 PUSH2 0x11E9 JUMP JUMPDEST PUSH2 0x1AA8 JUMP JUMPDEST DUP3 MSTORE POP POP JUMP JUMPDEST PUSH1 0x0 PUSH2 0x1ADD DUP3 DUP5 PUSH2 0x1ABA JUMP JUMPDEST PUSH1 0x14 DUP3 ADD SWAP2 POP DUP2 SWAP1 POP SWAP3 SWAP2 POP POP JUMP JUMPDEST PUSH1 0x0 DUP2 SWAP1 POP SWAP3 SWAP2 POP POP JUMP JUMPDEST PUSH1 0x0 PUSH2 0x1B02 DUP3 PUSH2 0x1379 JUMP JUMPDEST PUSH2 0x1B0C DUP2 DUP6 PUSH2 0x1AEC JUMP JUMPDEST SWAP4 POP PUSH2 0x1B1C DUP2 DUP6 PUSH1 0x20 DUP7 ADD PUSH2 0x1395 JUMP JUMPDEST DUP1 DUP5 ADD SWAP2 POP POP SWAP3 SWAP2 POP POP JUMP JUMPDEST PUSH1 0x0 PUSH2 0x1B34 DUP3 DUP6 PUSH2 0x1AF7 JUMP JUMPDEST SWAP2 POP PUSH2 0x1B40 DUP3 DUP5 PUSH2 0x1AF7 JUMP JUMPDEST SWAP2 POP DUP2 SWAP1 POP SWAP4 SWAP3 POP POP POP JUMP JUMPDEST PUSH1 0x0 DUP2 SWAP1 POP SWAP2 SWAP1 POP JUMP JUMPDEST PUSH2 0x1B67 PUSH2 0x1B62 DUP3 PUSH2 0x1574 JUMP JUMPDEST PUSH2 0x1B4C JUMP JUMPDEST DUP3 MSTORE POP POP JUMP JUMPDEST PUSH1 0x0 PUSH2 0x1B79 DUP3 DUP5 PUSH2 0x1B56 JUMP JUMPDEST PUSH1 0x20 DUP3 ADD SWAP2 POP DUP2 SWAP1 POP SWAP3 SWAP2 POP POP JUMP JUMPDEST PUSH32 0x4E487B7100000000000000000000000000000000000000000000000000000000 PUSH1 0x0 MSTORE PUSH1 0x11 PUSH1 0x4 MSTORE PUSH1 0x24 PUSH1 0x0 REVERT JUMPDEST PUSH1 0x0 PUSH2 0x1BC2 DUP3 PUSH2 0x1574 JUMP JUMPDEST SWAP2 POP PUSH32 0xFFFFFFFFFFFFFFFFFFFFFFFFFFFFFFFFFFFFFFFFFFFFFFFFFFFFFFFFFFFFFFFF DUP3 EQ ISZERO PUSH2 0x1BF5 JUMPI PUSH2 0x1BF4 PUSH2 0x1B88 JUMP JUMPDEST JUMPDEST PUSH1 0x1 DUP3 ADD SWAP1 POP SWAP2 SWAP1 POP JUMP JUMPDEST PUSH1 0x0 PUSH1 0xFF DUP3 AND SWAP1 POP SWAP2 SWAP1 POP JUMP JUMPDEST PUSH1 0x0 PUSH2 0x1C18 DUP3 PUSH2 0x1C00 JUMP JUMPDEST SWAP2 POP PUSH2 0x1C23 DUP4 PUSH2 0x1C00 JUMP JUMPDEST SWAP3 POP DUP3 PUSH1 0xFF SUB DUP3 GT ISZERO PUSH2 0x1C39 JUMPI PUSH2 0x1C38 PUSH2 0x1B88 JUMP JUMPDEST JUMPDEST DUP3 DUP3 ADD SWAP1 POP SWAP3 SWAP2 POP POP JUMP JUMPDEST PUSH32 0x4E487B7100000000000000000000000000000000000000000000000000000000 PUSH1 0x0 MSTORE PUSH1 0x12 PUSH1 0x4 MSTORE PUSH1 0x24 PUSH1 0x0 REVERT JUMPDEST PUSH1 0x0 PUSH2 0x1C7E DUP3 PUSH2 0x1574 JUMP JUMPDEST SWAP2 POP PUSH2 0x1C89 DUP4 PUSH2 0x1574 JUMP JUMPDEST SWAP3 POP DUP3 PUSH2 0x1C99 JUMPI PUSH2 0x1C98 PUSH2 0x1C44 JUMP JUMPDEST JUMPDEST DUP3 DUP3 DIV SWAP1 POP SWAP3 SWAP2 POP POP JUMP JUMPDEST PUSH1 0x0 PUSH2 0x1CAF DUP3 PUSH2 0x1574 JUMP JUMPDEST SWAP2 POP PUSH2 0x1CBA DUP4 PUSH2 0x1574 JUMP JUMPDEST SWAP3 POP DUP2 PUSH32 0xFFFFFFFFFFFFFFFFFFFFFFFFFFFFFFFFFFFFFFFFFFFFFFFFFFFFFFFFFFFFFFFF DIV DUP4 GT DUP3 ISZERO ISZERO AND ISZERO PUSH2 0x1CF3 JUMPI PUSH2 0x1CF2 PUSH2 0x1B88 JUMP JUMPDEST JUMPDEST DUP3 DUP3 MUL SWAP1 POP SWAP3 SWAP2 POP POP JUMP JUMPDEST PUSH1 0x0 PUSH2 0x1D09 DUP3 PUSH2 0x1574 JUMP JUMPDEST SWAP2 POP PUSH2 0x1D14 DUP4 PUSH2 0x1574 JUMP JUMPDEST SWAP3 POP DUP3 PUSH32 0xFFFFFFFFFFFFFFFFFFFFFFFFFFFFFFFFFFFFFFFFFFFFFFFFFFFFFFFFFFFFFFFF SUB DUP3 GT ISZERO PUSH2 0x1D49 JUMPI PUSH2 0x1D48 PUSH2 0x1B88 JUMP JUMPDEST JUMPDEST DUP3 DUP3 ADD SWAP1 POP SWAP3 SWAP2 POP POP JUMP JUMPDEST PUSH1 0x0 PUSH2 0x1D5F DUP3 PUSH2 0x1574 JUMP JUMPDEST SWAP2 POP PUSH2 0x1D6A DUP4 PUSH2 0x1574 JUMP JUMPDEST SWAP3 POP DUP3 DUP3 LT ISZERO PUSH2 0x1D7D JUMPI PUSH2 0x1D7C PUSH2 0x1B88 JUMP JUMPDEST JUMPDEST DUP3 DUP3 SUB SWAP1 POP SWAP3 SWAP2 POP POP JUMP JUMPDEST PUSH1 0x0 DUP2 PUSH1 0x1 SHR SWAP1 POP SWAP2 SWAP1 POP JUMP JUMPDEST PUSH1 0x0 DUP1 DUP3 SWAP2 POP DUP4 SWAP1 POP JUMPDEST PUSH1 0x1 DUP6 GT ISZERO PUSH2 0x1DDF JUMPI DUP1 DUP7 DIV DUP2 GT ISZERO PUSH2 0x1DBB JUMPI PUSH2 0x1DBA PUSH2 0x1B88 JUMP JUMPDEST JUMPDEST PUSH1 0x1 DUP6 AND ISZERO PUSH2 0x1DCA JUMPI DUP1 DUP3 MUL SWAP2 POP JUMPDEST DUP1 DUP2 MUL SWAP1 POP PUSH2 0x1DD8 DUP6 PUSH2 0x1D88 JUMP JUMPDEST SWAP5 POP PUSH2 0x1D9F JUMP JUMPDEST SWAP5 POP SWAP5 SWAP3 POP POP POP JUMP JUMPDEST PUSH1 0x0 DUP3 PUSH2 0x1DF8 JUMPI PUSH1 0x1 SWAP1 POP PUSH2 0x1EB4 JUMP JUMPDEST DUP2 PUSH2 0x1E06 JUMPI PUSH1 0x0 SWAP1 POP PUSH2 0x1EB4 JUMP JUMPDEST DUP2 PUSH1 0x1 DUP2 EQ PUSH2 0x1E1C JUMPI PUSH1 0x2 DUP2 EQ PUSH2 0x1E26 JUMPI PUSH2 0x1E55 JUMP JUMPDEST PUSH1 0x1 SWAP2 POP POP PUSH2 0x1EB4 JUMP JUMPDEST PUSH1 0xFF DUP5 GT ISZERO PUSH2 0x1E38 JUMPI PUSH2 0x1E37 PUSH2 0x1B88 JUMP JUMPDEST JUMPDEST DUP4 PUSH1 0x2 EXP SWAP2 POP DUP5 DUP3 GT ISZERO PUSH2 0x1E4F JUMPI PUSH2 0x1E4E PUSH2 0x1B88 JUMP JUMPDEST JUMPDEST POP PUSH2 0x1EB4 JUMP JUMPDEST POP PUSH1 0x20 DUP4 LT PUSH2 0x133 DUP4 LT AND PUSH1 0x4E DUP5 LT PUSH1 0xB DUP5 LT AND OR ISZERO PUSH2 0x1E8A JUMPI DUP3 DUP3 EXP SWAP1 POP DUP4 DUP2 GT ISZERO PUSH2 0x1E85 JUMPI PUSH2 0x1E84 PUSH2 0x1B88 JUMP JUMPDEST JUMPDEST PUSH2 0x1EB4 JUMP JUMPDEST PUSH2 0x1E97 DUP5 DUP5 DUP5 PUSH1 0x1 PUSH2 0x1D95 JUMP JUMPDEST SWAP3 POP SWAP1 POP DUP2 DUP5 DIV DUP2 GT ISZERO PUSH2 0x1EAE JUMPI PUSH2 0x1EAD PUSH2 0x1B88 JUMP JUMPDEST JUMPDEST DUP2 DUP2 MUL SWAP1 POP JUMPDEST SWAP4 SWAP3 POP POP POP JUMP JUMPDEST PUSH1 0x0 PUSH2 0x1EC6 DUP3 PUSH2 0x1574 JUMP JUMPDEST SWAP2 POP PUSH2 0x1ED1 DUP4 PUSH2 0x1574 JUMP JUMPDEST SWAP3 POP PUSH2 0x1EFE PUSH32 0xFFFFFFFFFFFFFFFFFFFFFFFFFFFFFFFFFFFFFFFFFFFFFFFFFFFFFFFFFFFFFFFF DUP5 DUP5 PUSH2 0x1DE8 JUMP JUMPDEST SWAP1 POP SWAP3 SWAP2 POP POP JUMP JUMPDEST PUSH1 0x0 PUSH2 0x1F11 DUP3 PUSH2 0x1574 JUMP JUMPDEST SWAP2 POP PUSH2 0x1F1C DUP4 PUSH2 0x1574 JUMP JUMPDEST SWAP3 POP DUP3 PUSH2 0x1F2C JUMPI PUSH2 0x1F2B PUSH2 0x1C44 JUMP JUMPDEST JUMPDEST DUP3 DUP3 MOD SWAP1 POP SWAP3 SWAP2 POP POP JUMP INVALID LOG2 PUSH5 0x6970667358 0x22 SLT KECCAK256 0xB4 0x4B 0xC MULMOD 0xCE 0x1F 0x2D CODECOPY LT DUP8 MSTORE DUP7 SWAP6 DUP3 0x2B SMOD EXTCODECOPY SUB LOG2 SWAP9 CALL COINBASE 0xD1 0xC7 SWAP3 PUSH29 0x7E2CA045CB2D64736F6C63430008090033000000000000000000000000 "},"methodIdentifiers":{"hashBlockHeader((bytes32,bytes32,address,bytes32,bytes32,bytes32,bytes32[8],uint256,uint64,uint64,uint64,uint64,bytes,bytes32,uint64,uint256),address,bytes32)":"3b223429","rlpBlockHeader((bytes32,bytes32,address,bytes32,bytes32,bytes32,bytes32[8],uint256,uint64,uint64,uint64,uint64,bytes,bytes32,uint64,uint256))":"562c57d5"}}}}}