{
  "_format": "hh-sol-artifact-1",
  "contractName": "LibBlockHeaderDecoder",
  "sourceName": "contracts/thirdparty/LibBlockHeaderDecoder.sol",
  "abi": [
    {
      "inputs": [
        {
          "internalType": "bytes",
          "name": "blockHeader",
          "type": "bytes"
        },
        {
          "internalType": "bytes32",
          "name": "blockHash",
          "type": "bytes32"
        },
        {
          "internalType": "bool",
          "name": "postEIP1559",
          "type": "bool"
        }
      ],
      "name": "decodeBlockHeader",
      "outputs": [
        {
          "internalType": "bytes32",
          "name": "_stateRoot",
          "type": "bytes32"
        },
        {
          "internalType": "uint256",
          "name": "_timestamp",
          "type": "uint256"
        },
        {
          "internalType": "bytes32",
          "name": "_transactionsRoot",
          "type": "bytes32"
        },
        {
          "internalType": "bytes32",
          "name": "_receiptsRoot",
          "type": "bytes32"
        }
      ],
      "stateMutability": "pure",
      "type": "function"
    }
  ],
  "bytecode": "0x610569610053600b82828239805160001a607314610046577f4e487b7100000000000000000000000000000000000000000000000000000000600052600060045260246000fd5b30600052607381538281f3fe73000000000000000000000000000000000000000030146080604052600436106100355760003560e01c8063a182e7771461003a575b600080fd5b610054600480360381019061004f9190610452565b61006d565b60405161006494939291906104ee565b60405180910390f35b60008060008060008561008157600f610084565b60105b60ff169050610278565b6308c379a060e01b60005260206004528060445260005b81156100bc578160081b91506001810190506100a5565b8060245260646000fd5b600080825162ffffff81168160801c9250601f8311156100f3576020830381019050803593505050610107565b600883602003028135945084811c94505050505b915091565b600080823560001a60f881101561012f5760bf810392506001840191505061015d565b60f781036001850192508235600882026101000381811c915082820195506001860195508285019450505050505b915091565b6000806000833560001a608081101561018657600193508492506001915050610201565b60b88110156101a5576080810393506001850192506001915050610201565b60c08110156101d65760b78103935060018501925082356008850261010003858701945081811c9550505050610201565b6101ff7f524c50000000000000000000000000000000000000000000000000000000000061008e565b505b9193909250565b600080600080849350604051925061021f8461010c565b818686378185209250848287018297505b808810156102655761024188610162565b8183019a50801561025d57818360801b17808652602086019550505b505050610230565b6020878303049550505050509193509193565b61028189610208565b8b8d0184146102b4576102b37f424f554e4453000000000000000000000000000000000000000000000000000061008e565b5b8a81146102e5576102e47f484153480000000000000000000000000000000000000000000000000000000061008e565b5b848214610316576103157f4954454d5300000000000000000000000000000000000000000000000000000061008e565b5b6000610327600b60200285016100c6565b9150985061033a600360200285016100c6565b9150995061034d600460200285016100c6565b91509750610360600560200285016100c6565b91509650505050505050945094509450949050565b600080fd5b600080fd5b600080fd5b600080fd5b600080fd5b60008083601f8401126103a4576103a361037f565b5b8235905067ffffffffffffffff8111156103c1576103c0610384565b5b6020830191508360018202830111156103dd576103dc610389565b5b9250929050565b6000819050919050565b6103f7816103e4565b811461040257600080fd5b50565b600081359050610414816103ee565b92915050565b60008115159050919050565b61042f8161041a565b811461043a57600080fd5b50565b60008135905061044c81610426565b92915050565b6000806000806060858703121561046c5761046b610375565b5b600085013567ffffffffffffffff81111561048a5761048961037a565b5b6104968782880161038e565b945094505060206104a987828801610405565b92505060406104ba8782880161043d565b91505092959194509250565b6104cf816103e4565b82525050565b6000819050919050565b6104e8816104d5565b82525050565b600060808201905061050360008301876104c6565b61051060208301866104df565b61051d60408301856104c6565b61052a60608301846104c6565b9594505050505056fea2646970667358221220dc04428ccfa18709aa71fafeaac80a1cb23354e39afc2754e8ac25e0b2d8758764736f6c63430008090033",
  "linkReferences": {},
  "deployedLinkReferences": {}
}